:0400000007EF00F016
:100008006D824BED0EF021EF22F059EC2AF0000E34
:10001800136E010E126E680E146E000E156EC3EC90
:1000280028F00001FD6F8D0E1A6E010E1B6E000E7A
:100038001C6EFE0E1D6E000E1E6ED1EC25F000012A
:10004800FD6F000E316E400E326E9C0E336E400E08
:10005800346EFEC01FF0FFC020F0216A226A000E35
:100068004EEC14F01FC02DF020C02EF021C02FF050
:1000780022C030F066EC10F02DC046F02EC047F0DC
:100088002FC048F030C049F0A6EC1BF046C0FEF087
:1000980047C0FFF0FEC012F0FFC013F0000E156E4F
:1000A8000A0E146E97EC25F012C0FEF013C0FFF094
:1000B800000E136E000E126E6B0E146E000E156E8F
:1000C800C3EC28F00001FD6F6B28D8B46EEF00F088
:1000D80070EF00F09DEF0DF06650D8A476EF00F0B9
:1000E80078EF00F0A6EF00F05C0E2F6E000E306E79
:1000F800010E316E010E326E420E336EFE0E346EFC
:1001080017EC27F00001FD6F6804D8A48EEF00F00B
:1001180090EF00F09AEF00F06C0E126E000E136E66
:1001280079EC29F00001FD6FA6EF00F0ED0E1C6ED2
:10013800000E1D6E6C0E1E6E000E1F6E28EC15F064
:100148000001FD6F3D0E6C18D8B4ADEF00F0AFEFB5
:1001580000F0B7EF00F06650D8B4B5EF00F0B7EF95
:1001680000F058EF0DF0370E186E010E196E82EC84
:1001780017F018C090F019C091F00001000E91BF5F
:10018800FF0E926F936F000E136E000E126E6B0EC1
:10019800146E000E156EC3EC28F00001FD6F6BC0E5
:1001A800B9F10101BA6BBB6BBC6B00019051010145
:1001B800B91915E1000191510101BA1910E10001C5
:1001C80092510101BB190BE1000193510101BC19C6
:1001D800D8B4F1EF00F0F3EF00F0FBEF00F0665059
:1001E800D8B4F9EF00F0FBEF00F0A8EF0CF0665080
:1001F800D8A401EF01F003EF01F044EF01F05C0E29
:10020800246E000E256E010E266E21EC25F00001ED
:10021800FD6F820E0101B96FDD0EE82EFED7B92FF2
:10022800FCD700D05C0E2F6E000E306E010E316EC2
:10023800070E326ED80E336EFF0E346E17EC27F0B1
:100248000001FD6F0B0E0101BA6F260EB96F5D0E2E
:10025800E82EFED7B92FFCD7BA2FFAD700D0030E55
:100268000001DC6F010E666E5C0E246E000E256EBA
:10027800010E266E21EC25F00001FD6F46EF0DF012
:100288006604D8A44AEF01F04CEF01F0AAEF01F0A0
:100298005C0E2F6E000E306E010E316E010E326E46
:1002A800750E336EFE0E346E17EC27F00001FD6FED
:1002B8005C0E2F6E000E306E020E316E010E326E25
:1002C800640E336EFE0E346E17EC27F00001FD6FDE
:1002D8005C0E2F6E000E306E030E316E010E326E04
:1002E8001C0E336EFE0E346E17EC27F00001FD6F06
:1002F8005C0E2F6E000E306E040E316E010E326EE3
:10030800070E336EFE0E346E17EC27F00001FD6FFA
:100318006804D8A492EF01F094EF01F09EEF01F089
:100328006A0E126E000E136E79EC29F00001FD6F53
:10033800AAEF01F0ED0E1C6E000E1D6E6A0E1E6E09
:10034800000E1F6E28EC15F00001FD6F040E000171
:10035800C319D8A4B2EF01F0B4EF01F0C2EF01F075
:10036800620E126E000E136E410E146E41EC29F0EF
:100378000001FD6F000EC36F82EF0CF0620E126E6B
:10038800000E136E6AC014F041EC29F00001FD6FF5
:1003980082EF0CF06604D8A4D4EF01F0D6EF01F098
:1003A800D8EF01F0020E666E020E6618D8A4DFEFD1
:1003B80001F0E1EF01F0EDEF01F05C0E246E000EAC
:1003C800256E010E266E21EC25F00001FD6F030E4F
:1003D800666E030E6618D8A4F4EF01F0F6EF01F08C
:1003E80046EF05F05C0E2F6E000E306E010E316E7A
:1003F800010E326EE80E336EFE0E346E17EC27F0E7
:100408000001FD6FFEC058F0FFC059F04B0E5A6E48
:10041800010E5B6E28EC1FF00001FD6F5C0E2F6E65
:10042800000E306E010E316E0F0E326E4B0E336EB3
:10043800010E346E17EC27F00001FD6F5C0E2F6E75
:10044800000E306E020E316E010E326E300E336EBB
:10045800FE0E346E17EC27F00001FD6F5C0E2F6E58
:10046800000E306E030E316E010E326ECF0E336EFB
:10047800FF0E346E17EC27F00001FD6F5C0E2F6E37
:10048800000E306E040E316E010E326E5C0E336E4D
:10049800FF0E346E17EC27F00001FD6F5C0E2F6E17
:1004A800000E306E040E316E0F0E326EEE0E336E8D
:1004B800FF0E346E17EC27F00001FD6F6804D8A416
:1004C80068EF02F06AEF02F074EF02F0690E126E44
:1004D800000E136E79EC29F00001FD6F46EF05F070
:1004E800ED0E1C6E000E1D6E690E1E6E000E1F6E48
:1004F80028EC15F00001FD6F46EF05F0030E6618B5
:10050800D8A489EF02F08BEF02F097EF02F05C0EAF
:10051800246E000E256E010E266E21EC25F00001DA
:10052800FD6F040E666E040E6618D8A49EEF02F0E6
:10053800A0EF02F046EF0DF05C0E2F6E000E306E4D
:10054800010E316E010E326EE80E336EFE0E346E01
:1005580017EC27F00001FD6FFEC058F0FFC059F0FE
:100568004B0E5A6E010E5B6E28EC1FF00001FD6FFA
:100578005C0E2F6E000E306E010E316E0F0E326E55
:100588004B0E336E010E346E17EC27F00001FD6F31
:100598005C0E2F6E000E306E020E316E010E326E42
:1005A800A10E336EFF0E346E17EC27F00001FD6FBD
:1005B8005C0E2F6E000E306E030E316E010E326E21
:1005C800800E336EFF0E346E17EC27F00001FD6FBE
:1005D8005C0E2F6E000E306E040E316E010E326E00
:1005E800E70E336EFF0E346E17EC27F00001FD6F37
:1005F8006804D8A402EF03F004EF03F00EEF03F051
:100608006C0E126E000E136E79EC29F00001FD6F6E
:100618001AEF03F0ED0E1C6E000E1D6E6C0E1E6EB2
:10062800000E1F6E28EC15F00001FD6F310E6C18DE
:10063800D8A421EF03F023EF03F039EF03F0640EA1
:10064800126E000E136E010E146EF3EC19F0000119
:10065800FD6F630E126E000E136E000E146EF3EC37
:1006680019F00001FD6F46EF0DF0320E6C18D8A49A
:1006780040EF03F042EF03F04EEF03F0640E126E0A
:10068800000E136E000E146EF3EC19F00001FD6FEE
:1006980046EF0DF0330E6C18D8A455EF03F057EF62
:1006A80003F05DEF03F0020E666E000E696E46EF12
:1006B8000DF046EF0DF0030E6618D8A466EF03F0B0
:1006C80068EF03F074EF03F05C0E246E000E256EE5
:1006D800010E266E21EC25F00001FD6F040E666EFA
:1006E800040E6618D8A47BEF03F07DEF03F05DEFEE
:1006F80003F05C0E2F6E000E306E010E316E010E8F
:10070800326EE80E336EFE0E346E17EC27F00001E1
:10071800FD6FFEC058F0FFC059F04B0E5A6E010E27
:100728005B6E28EC1FF00001FD6F5C0E2F6E000E53
:10073800306E010E316E0F0E326E4B0E336E010E9F
:10074800346E17EC27F00001FD6F5C0E2F6E000E63
:10075800306E020E316E010E326EA10E336EFF0E38
:10076800346E17EC27F00001FD6F5C0E2F6E000E43
:10077800306E030E316E010E326E800E336EFF0E38
:10078800346E17EC27F00001FD6F5C0E2F6E000E23
:10079800306E040E316E010E326EE70E336EFF0EB0
:1007A800346E17EC27F00001FD6F6804D8A4DFEF62
:1007B80003F0E1EF03F0EBEF03F06C0E126E000EA6
:1007C800136E79EC29F00001FD6FF7EF03F0ED0EE1
:1007D8001C6E000E1D6E6C0E1E6E000E1F6E28EC39
:1007E80015F00001FD6F310E6C18D8A4FEEF03F070
:1007F80000EF04F016EF04F0630E126E000E136E95
:10080800010E146EF3EC19F00001FD6F640E126E08
:10081800000E136E000E146EF3EC19F00001FD6F5C
:1008280046EF0DF0320E6C18D8A41DEF04F01FEF40
:1008380004F02BEF04F0630E126E000E136E000E20
:10084800146EF3EC19F00001FD6F46EF0DF0330E56
:100858006C18D8A432EF04F034EF04F05DEF03F025
:1008680057EF03F0030E6618D8A43DEF04F03FEFEE
:1008780004F04BEF04F05C0E246E000E256E010EA2
:10088800266E21EC25F00001FD6F040E666E040E45
:100898006618D8A452EF04F054EF04F05DEF03F0AB
:1008A8005C0E2F6E000E306E010E316E010E326E30
:1008B800E80E336EFE0E346E17EC27F00001FD6F64
:1008C800FEC058F0FFC059F04B0E5A6E010E5B6E19
:1008D80028EC1FF00001FD6F5C0E2F6E000E306ECD
:1008E800010E316E0F0E326E4B0E336E010E346EEA
:1008F80017EC27F00001FD6F5C0E2F6E000E306EB6
:10090800040E316E010E326EE00E336EFF0E346E41
:1009180017EC27F00001FD6F6804D8A496EF04F0E7
:1009280098EF04F0A2EF04F06C0E126E000E136E36
:1009380079EC29F00001FD6FAEEF04F0ED0E1C6EAE
:10094800000E1D6E6C0E1E6E000E1F6E28EC15F04C
:100958000001FD6FFF5109E1260EFE5DD8A0B7EF3B
:1009680004F0B9EF04F0CFEF04F0640E126E000E3D
:10097800136E010E146EF3EC19F00001FD6F630E97
:10098800126E000E136E000E146EF3EC19F00001D7
:10099800FD6F04EF05F0FF5107E1100EFE5DD8B0C2
:1009A800D8EF04F0DAEF04F0F0EF04F0630E126E03
:1009B800000E136E010E146EF3EC19F00001FD6FBA
:1009C800640E126E000E136E000E146EF3EC19F026
:1009D8000001FD6F04EF05F0630E126E000E136E3A
:1009E800000E146EF3EC19F00001FD6F640E126E28
:1009F800000E136E000E146EF3EC19F00001FD6F7B
:100A0800310E6C18D8A40BEF05F00DEF05F05DEF73
:100A180003F057EF03F0010E666E000E6A6E46EFA4
:100A28000DF06950D8B41BEF05F01DEF05F05DEF30
:100A380003F05C0E246E000E256E010E266E21EC6E
:100A480025F00001FD6F5C0E2F6E000E306E010E5A
:100A5800316E070E326E060E336EFF0E346E17ECD3
:100A680027F00001FD6F090E0101BA6F1E0EB96F64
:100A7800E40EE82EFED7B92FFCD7BA2FFAD700F02C
:100A880046EF0DF069500101B96FBA6BBA51000A0F
:100A9800D8B451EF05F015EF05F0B951310AD8B4C3
:100AA80082EF02F0030AD8B45FEF03F0010AD8B46A
:100AB80036EF04F0070AD8B40FEF05F015EF05F08C
:100AC8006604D8A46AEF05F06CEF05F06EEF05F048
:100AD800020E666E020E6618D8A475EF05F077EF61
:100AE80005F083EF05F05C0E246E000E256E010EF6
:100AF800266E21EC25F00001FD6F030E666E030ED5
:100B08006618D8A48AEF05F08CEF05F05DEF03F0C6
:100B18005C0E2F6E000E306E010E316E010E326EBD
:100B2800B80E336EFE0E346E17EC27F00001FD6F21
:100B38005C0E2F6E000E306E020E316E010E326E9C
:100B4800530E336EFE0E346E17EC27F00001FD6F66
:100B58005C0E2F6E000E306E040E316E010E326E7A
:100B6800E70E336EFF0E346E17EC27F00001FD6FB1
:100B78006804D8A4C2EF05F0C4EF05F0CEEF05F085
:100B8800690E126E000E136E79EC29F00001FD6FEC
:100B9800DAEF05F0ED0E1C6E000E1D6E690E1E6E6E
:100BA800000E1F6E28EC15F00001FD6F000E136E8D
:100BB800010E126E68C014F07EEC28F00001FD6F83
:100BC80012EF06F0010E686E46EF0DF0000E686E2B
:100BD80046EF0DF06950D8B4F4EF05F0F6EF05F0E4
:100BE8005DEF03F05C0E246E000E256E010E266E7E
:100BF80021EC25F00001FD6F5C0E2F6E000E306EAB
:100C0800010E316E070E326E060E336EFF0E346E15
:100C180017EC27F00001FD6F37EF05F0695001016F
:100C2800B96FBA6BBA51000AD8B41DEF06F0EEEFEF
:100C380005F0B951310AD8B4E6EF05F0030AD8B483
:100C4800EAEF05F0010AD8B40FEF05F0EEEF05F072
:100C58006604D8A432EF06F034EF06F036EF06F05B
:100C6800020E666E020E6618D8A43DEF06F03FEF3E
:100C780006F04BEF06F05C0E246E000E256E010E9A
:100C8800266E21EC25F00001FD6F030E666E030E43
:100C98006618D8A452EF06F054EF06F0A2EF06F05B
:100CA8005C0E2F6E000E306E010E316E010E326E2C
:100CB800240E336EFF0E346E17EC27F00001FD6F23
:100CC8005C0E2F6E000E306E020E316E010E326E0B
:100CD800330E336EFF0E346E17EC27F00001FD6FF4
:100CE8005C0E2F6E000E306E040E316E010E326EE9
:100CF800E70E336EFF0E346E17EC27F00001FD6F20
:100D08006804D8A48AEF06F08CEF06F096EF06F098
:100D1800690E126E000E136E79EC29F00001FD6F5A
:100D2800A2EF06F0ED0E1C6E000E1D6E690E1E6E13
:100D3800000E1F6E28EC15F00001FD6F620E126E9A
:100D4800000E136E69C014F041EC29F00001FD6F2C
:100D5800CCEF07F0030E6618D8A4B5EF06F0B7EF8E
:100D680006F0C3EF06F05C0E246E000E256E010E31
:100D7800266E21EC25F00001FD6F040E666E040E50
:100D88006618D8A4CAEF06F0CCEF06F05DEF03F0C2
:100D98005C0E2F6E000E306E010E316E010E326E3B
:100DA800D80E336EFE0E346E17EC27F00001FD6F7F
:100DB8005C0E2F6E000E306E020E316E010E326E1A
:100DC800970E336EFE0E346E17EC27F00001FD6FA0
:100DD8005C0E2F6E000E306E030E316E010E326EF9
:100DE800E70E336EFF0E346E17EC27F00001FD6F2F
:100DF8006804D8A402EF07F004EF07F00EEF07F03D
:100E08006C0E126E000E136E79EC29F00001FD6F66
:100E18001AEF07F0ED0E1C6E000E1D6E6C0E1E6EA6
:100E2800000E1F6E28EC15F00001FD6F330E6C18D4
:100E3800D8A421EF07F023EF07F025EF07F0020E03
:100E4800666E620E126E000E136E6CC014F041ECEA
:100E580029F00001FD6F46EF0DF0030E6618D8A4C7
:100E680038EF07F03AEF07F046EF07F05C0E246E14
:100E7800000E256E010E266E21EC25F00001FD6F97
:100E8800040E666E040E6618D8A44DEF07F04FEFF7
:100E980007F05DEF03F05C0E2F6E000E306E010E52
:100EA800316E010E326E740E336EFF0E346E17EC17
:100EB80027F00001FD6F5C0E2F6E000E306E020EE3
:100EC800316E010E326E4F0E336EFF0E346E17EC1C
:100ED80027F00001FD6F5C0E2F6E000E306E030EC2
:100EE800316E010E326EE70E336EFF0E346E17EC64
:100EF80027F00001FD6F6804D8A485EF07F087EF9D
:100F080007F091EF07F06C0E126E000E136E79EC7D
:100F180029F00001FD6F9DEF07F0ED0E1C6E000E2D
:100F28001D6E6C0E1E6E000E1F6E28EC15F0000173
:100F3800FD6F330E6C18D8A4A4EF07F0A6EF07F0E6
:100F480025EF07F023EF07F06950D8B4AEEF07F0AC
:100F5800B0EF07F05DEF03F05C0E246E000E256E17
:100F6800010E266E21EC25F00001FD6F5C0E2F6E40
:100F7800000E306E010E316E070E326E060E336EA5
:100F8800FF0E346E17EC27F00001FD6F37EF05F008
:100F980069500101B96FBA6BBA51000AD8B4D7EFDA
:100FA80007F0A8EF07F0B951310AD8B4AEEF06F050
:100FB800030AD8B431EF07F0010AD8B40FEF05F0EF
:100FC800A8EF07F06604D8A4ECEF07F0EEEF07F0FF
:100FD800F0EF07F0020E666E020E6618D8A4F7EF5F
:100FE80007F0F9EF07F005EF08F05C0E246E000E2D
:100FF800256E010E266E21EC25F00001FD6F030E13
:10100800666E030E6618D8A40CEF08F00EEF08F011
:101018007CEF08F05C0E2F6E000E306E010E316E04
:10102800010E326EAB0E336EFF0E346E17EC27F0E6
:101038000001FD6F5C0E2F6E000E306E020E316ED9
:10104800010E326EB40E336EFF0E346E17EC27F0BD
:101058000001FD6F5C0E2F6E000E306E030E316EB8
:10106800010E326EBD0E336EFF0E346E17EC27F094
:101078000001FD6F5C0E2F6E000E306E040E316E97
:10108800010E326EC60E336EFF0E346E17EC27F06B
:101098000001FD6F5C0E2F6E000E306E040E316E77
:1010A8000D0E326EF50E336EFF0E346E17EC27F010
:1010B8000001FD6F6804D8A464EF08F066EF08F03B
:1010C80070EF08F0690E126E000E136E79EC29F0BD
:1010D8000001FD6F7CEF08F0ED0E1C6E000E1D6E1A
:1010E800690E1E6E000E1F6E28EC15F00001FD6FD4
:1010F800620E126E000E136E69C014F041EC29F0F6
:101108000001FD6F88EF0AF0030E6618D8A48FEF70
:1011180008F091EF08F09DEF08F05C0E246E000EC9
:10112800256E010E266E21EC25F00001FD6F040EE0
:10113800666E040E6618D8A4A4EF08F0A6EF08F0AF
:101148005DEF03F05C0E2F6E000E306E010E316EF7
:10115800010E326ED80E336EFE0E346E17EC27F089
:101168000001FD6F5C0E2F6E000E306E020E316EA8
:10117800010E326E970E336EFE0E346E17EC27F0AA
:101188000001FD6F5C0E2F6E000E306E030E316E87
:10119800010E326EE70E336EFF0E346E17EC27F039
:1011A8000001FD6F6804D8A4DCEF08F0DEEF08F05A
:1011B800E8EF08F06C0E126E000E136E79EC29F051
:1011C8000001FD6FF4EF08F0ED0E1C6E000E1D6EB1
:1011D8006C0E1E6E000E1F6E28EC15F00001FD6FE0
:1011E800330E6C18D8A4FBEF08F0FDEF08F025EFDC
:1011F80007F023EF07F0030E6618D8A406EF09F0EE
:1012080008EF09F014EF09F05C0E246E000E256E4D
:10121800010E266E21EC25F00001FD6F040E666EAE
:10122800040E6618D8A41BEF09F01DEF09F05DEF56
:1012380003F05C0E2F6E000E306E010E316E010E43
:10124800326ED80E336EFE0E346E17EC27F00001A6
:10125800FD6F5C0E2F6E000E306E020E316E010EA9
:10126800326E970E336EFE0E346E17EC27F00001C7
:10127800FD6F5C0E2F6E000E306E030E316E010E88
:10128800326EE70E336EFF0E346E17EC27F0000156
:10129800FD6F6804D8A453EF09F055EF09F05FEF2C
:1012A80009F06C0E126E000E136E79EC29F0000135
:1012B800FD6F6BEF09F0ED0E1C6E000E1D6E6C0ECF
:1012C8001E6E000E1F6E28EC15F00001FD6F330E28
:1012D8006C18D8A472EF09F074EF09F025EF07F045
:1012E80023EF07F0030E6618D8A47DEF09F07FEF0F
:1012F80009F08BEF09F05C0E246E000E256E010ECE
:10130800266E21EC25F00001FD6F040E666E040EBA
:101318006618D8A492EF09F094EF09F05DEF03F096
:101328005C0E2F6E000E306E010E316E010E326EA5
:10133800D80E336EFE0E346E17EC27F00001FD6FE9
:101348005C0E2F6E000E306E020E316E010E326E84
:10135800970E336EFE0E346E17EC27F00001FD6F0A
:101368005C0E2F6E000E306E030E316E010E326E63
:10137800E70E336EFF0E346E17EC27F00001FD6F99
:101388006804D8A4CAEF09F0CCEF09F0D6EF09F049
:101398006C0E126E000E136E79EC29F00001FD6FD1
:1013A800E2EF09F0ED0E1C6E000E1D6E6C0E1E6E47
:1013B800000E1F6E28EC15F00001FD6F330E6C183F
:1013C800D8A4E9EF09F0EBEF09F025EF07F023EFD8
:1013D80007F0030E6618D8A4F4EF09F0F6EF09F049
:1013E80002EF0AF05C0E246E000E256E010E266ECA
:1013F80021EC25F00001FD6F040E666E040E6618E0
:10140800D8A409EF0AF00BEF0AF05DEF03F05C0EC9
:101418002F6E000E306E010E316E010E326ED80E38
:10142800336EFE0E346E17EC27F00001FD6F5C0E74
:101438002F6E000E306E020E316E010E326E970E58
:10144800336EFE0E346E17EC27F00001FD6F5C0E54
:101458002F6E000E306E030E316E010E326EE70EE7
:10146800336EFF0E346E17EC27F00001FD6F680431
:10147800D8A441EF0AF043EF0AF04DEF0AF06C0EE2
:10148800126E000E136E79EC29F00001FD6F59EF12
:101498000AF0ED0E1C6E000E1D6E6C0E1E6E000E18
:1014A8001F6E28EC15F00001FD6F330E6C18D8A4E0
:1014B80060EF0AF062EF0AF025EF07F023EF07F07C
:1014C8006950D8B46AEF0AF06CEF0AF05DEF03F0E8
:1014D8005C0E246E000E256E010E266E21EC25F0A2
:1014E8000001FD6F5C0E2F6E000E306E010E316E26
:1014F800070E326E060E336EFF0E346E17EC27F0B1
:101508000001FD6F37EF05F069500101B96FBA6B43
:10151800BA51000AD8B493EF0AF064EF0AF0B9514F
:10152800310AD8B488EF08F0030AD8B4FFEF08F0FE
:10153800010AD8B476EF09F0070AD8B4EDEF09F03C
:10154800010AD8B40FEF05F064EF0AF06604D8A4D6
:10155800B0EF0AF0B2EF0AF0B4EF0AF0020E666ECE
:10156800020E6618D8A4BBEF0AF0BDEF0AF0C9EF67
:101578000AF05C0E246E000E256E010E266E21EC1C
:1015880025F00001FD6F030E666E030E6618D8A4E1
:10159800D0EF0AF0D2EF0AF030EF0BF05C0E2F6EAE
:1015A800000E306E010E316E010E326E680E336E13
:1015B800FF0E346E17EC27F00001FD6F5C0E2F6EE6
:1015C800000E306E020E316E010E326EC80E336E92
:1015D800FE0E346E17EC27F00001FD6F5C0E2F6EC7
:1015E800000E306E030E316E010E326E150E336E24
:1015F800FF0E346E17EC27F00001FD6F5C0E2F6EA6
:10160800000E306E040E316E010E326EEE0E336E29
:10161800FF0E346E17EC27F00001FD6F6804D8A4A4
:1016280018EF0BF01AEF0BF024EF0BF0690E126EA7
:10163800000E136E79EC29F00001FD6F30EF0BF00E
:10164800ED0E1C6E000E1D6E690E1E6E000E1F6ED6
:1016580028EC15F00001FD6F620E126E000E136E7D
:1016680069C014F041EC29F00001FD6F310E6918D2
:10167800D8A441EF0BF043EF0BF0F1EF0BF0030EA2
:101688006618D8A44AEF0BF04CEF0BF068EF0BF09C
:10169800040E666E5C0E246E000E256E010E266E1C
:1016A80021EC25F00001FD6F5C0E2F6E000E306EF0
:1016B800010E316E010E326EA80E336EFE0E346EC0
:1016C80017EC27F00001FD6F040E6618D8A46FEF21
:1016D8000BF071EF0BF046EF0DF06804D8A477EF2C
:1016E8000BF079EF0BF083EF0BF06C0E126E000E1F
:1016F800136E79EC29F00001FD6F8FEF0BF0ED0E02
:101708001C6E000E1D6E6C0E1E6E000E1F6E28ECF9
:1017180015F00001FD6F3D0E6C18D8A496EF0BF084
:1017280098EF0BF0A8EF0BF0030E666E5C0E246EBC
:10173800000E256E010E266E21EC25F00001FD6FCE
:10174800000EC46F46EF0DF06C50D8B4AEEF0BF03E
:10175800B0EF0BF046EF0DF06CC0D7F0C451D8A431
:10176800B8EF0BF0BAEF0BF0D1EF0BF0D70E186E05
:10177800000E196E82EC17F01850656EA60E1C6EDE
:10178800010E1D6E65C01EF08DEC21F00001FD6F8D
:10179800C42B65C0C7F046EF0DF0C405D8A4D7EF39
:1017A8000BF0D9EF0BF05DEF03F0D70E186E000EBB
:1017B800196E82EC17F01850656EA10E1C6E010EA2
:1017C8001D6E65C01EF08DEC21F00001FD6F000E4E
:1017D800C46F65C0C6F046EF0DF0320E6918D8A484
:1017E800F8EF0BF0FAEF0BF006EF0CF0940E196E11
:1017F800010E1A6ED7EC21F00001FD6F010EC36FC8
:1018080046EF0DF0330E6918D8A40DEF0CF00FEF6A
:101818000CF01DEF0CF0940E126E010E136E01EC1D
:101828002AF00001FD6F000EC36F000EC56F46EF72
:101838000DF0340E6918D8A424EF0CF026EF0CF044
:101848002AEF0CF0010E666E46EF0DF06950D8B421
:1018580030EF0CF032EF0CF05DEF03F05C0E246E0D
:10186800000E256E010E266E21EC25F00001FD6F9D
:101878005C0E2F6E000E306E010E316E070E326E4A
:10188800060E336EFF0E346E17EC27F00001FD6F65
:1018980037EF05F05C0E246E000E256E010E266EE5
:1018A80021EC25F00001FD6F000E666E000E6A6ED9
:1018B80046EF0DF06A50D8B464EF0CF066EF0CF008
:1018C8005DEF03F05C0E246E000E256E010E266E91
:1018D80021EC25F00001FD6F5C0E2F6E000E306EBE
:1018E800010E316E070E326E060E336EFF0E346E29
:1018F80017EC27F00001FD6F37EF05F06A50010182
:10190800B96FBA6BBA51000AD8B48DEF0CF05EEF1C
:101918000CF0B951310AD8B4CEEF01F0030AD8B4AB
:1019280064EF05F0010AD8B42CEF06F0070AD8B422
:10193800E6EF07F0010AD8B4AAEF0AF0030AD8B410
:101948004EEF0CF05EEF0CF00001DC07DCBFB1EFEE
:101958000CF0AFEF0CF0F4EF0CF05C0E246E000E00
:10196800256E010E266E21EC25F00001FD6F5C0E40
:101978002F6E000E306E010E316E010E326E410E6A
:10198800336EFF0E346E17EC27F00001FD6F5C0E0E
:101998002F6E000E306E010E316E010E326E860E05
:1019A800336EFE0E346E17EC27F00001FD6F0B0E40
:1019B8000101BA6F260EB96F5D0EE82EFED7B92F5A
:1019C800FCD7BA2FFAD700D05C0E246E000E256E15
:1019D800010E266E21EC25F00001FD6F49EF0EF097
:1019E8005C0E246E000E256E010E266E21EC25F08D
:1019F8000001FD6F5C0E2F6E000E306E010E316E11
:101A0800040E326E8B0E336EFF0E346E17EC27F019
:101A18000001FD6F550E586E010E596EDC5144ECF5
:101A280027F00001FD6F5C0E2F6E000E306E020E67
:101A3800316E030E326E550E336E010E346E17EC96
:101A480027F00001FD6F5C0E2F6E000E306E020E47
:101A5800316E040E326E960E336EFF0E346E17EC36
:101A680027F00001FD6F0B0E0101BA6F260EB96F4A
:101A78005D0EE82EFED7B92FFCD7BA2FFAD700D0C3
:101A880038EF01F0000E676E370E126E010E136EFE
:101A9800000E156E000E146E000E176E140E166EE4
:101AA800C7EC16F0F4EF0DF0630E6C18D8A45FEFD6
:101AB8000DF061EF0DF063EF0DF038EF01F06C50B1
:101AC800D8B469EF0DF06BEF0DF09BEF0DF05C0EE5
:101AD8002F6E000E306E020E316E6728326E6CC0AB
:101AE80033F038EC28F0370E6724D96EDA6A010E25
:101AF800DA226CC0DFFF040E0101BA6F0C0EB96F59
:101B0800330EE82EFED7B92FFCD7BA2FFAD700D05C
:101B18005C0E2F6E000E306E020E316E6728326E2C
:101B28002A0E336E38EC28F0672AF4EF0DF0F4EF44
:101B38000DF05C0E2F6E000E306E010E316E010E30
:101B4800326EF70E336EFE0E346E17EC27F000017E
:101B5800FD6FED0E1C6E000E1D6E6C0E1E6E000EDF
:101B68001F6E28EC15F00001FD6F3D0E6C18D8A40F
:101B7800C0EF0DF0C2EF0DF0EAEF0DF0000E676E4A
:101B8800370E186E010E196E82EC17F018C090F01F
:101B980019C091F00001000E91BFFF0E926F936F74
:101BA800000E136E000E126E90C014F07EEC28F03A
:101BB8000001FD6F5C0E246E000E256E010E266E70
:101BC80021EC25F00001FD6F48EF0DF06C50D8B402
:101BD800F0EF0DF0F2EF0DF0F4EF0DF06BEF0DF00C
:101BE8000001C305D8A4FBEF0DF0FDEF0DF009EFE0
:101BF8000EF0940E196E010E1A6ED7EC21F000014A
:101C0800FD6F020EC36F17EF00F0020EC319D8A4C0
:101C180010EF0EF012EF0EF032EF0EF0C505D8A45B
:101C280018EF0EF01AEF0EF032EF0EF0A60E1C6E43
:101C3800010E1D6EC7C01EF08DEC21F00001FD6F76
:101C4800A10E1C6E010E1D6EC6C01EF08DEC21F09B
:101C58000001FD6F000EC56F17EF00F0020EC519E9
:101C6800D8A439EF0EF03BEF0EF047EF0EF0040E5C
:101C7800C36F940E126E010E136E01EC2AF0000170
:101C8800FD6F2EEF0EF017EF00F007EF00F00600E3
:101C9800FACF0CF0FBCF0DF0D9CF0EF0DACF0FF062
:101CA800F3CF10F0F4CF11F0F2A85DEF0EF05FEF74
:101CB8000EF068EF0EF0F2A264EF0EF066EF0EF091
:101CC80068EF0EF06BEC2AF0F0A66DEF0EF06FEFF8
:101CD8000EF078EF0EF0F0A074EF0EF076EF0EF045
:101CE80078EF0EF069EC2AF0F0A87DEF0EF07FEFA8
:101CF8000EF088EF0EF0F0A284EF0EF086EF0EF0F3
:101D080088EF0EF067EC2AF0F2A68DEF0EF08FEF59
:101D18000EF0ABEF0EF0F2A094EF0EF096EF0EF08F
:101D2800ABEF0EF081A89BEF0EF09DEF0EF0ABEF3E
:101D38000EF000019451D8A4A4EF0EF0A6EF0EF017
:101D4800ABEF0EF0010E946F000EB0EC23F0F2A68C
:101D5800B0EF0EF0B2EF0EF0CEEF0EF0F2A0B7EF4C
:101D68000EF0B9EF0EF0CEEF0EF081B8BEEF0EF028
:101D7800C0EF0EF0CEEF0EF000019405D8A4C7EF27
:101D88000EF0C9EF0EF0CEEF0EF0000E946F010EBC
:101D9800B0EC23F0F2A6D3EF0EF0D5EF0EF0F1EF92
:101DA8000EF0F2A0DAEF0EF0DCEF0EF0F1EF0EF02D
:101DB80081AAE1EF0EF0E3EF0EF0F1EF0EF0000173
:101DC8009551D8A4EAEF0EF0ECEF0EF0F1EF0EF01B
:101DD800010E956F000E6FEC23F0F2A6F6EF0EF0F1
:101DE800F8EF0EF014EF0FF0F2A0FDEF0EF0FFEF9A
:101DF8000EF014EF0FF081BA04EF0FF006EF0FF0BA
:101E080014EF0FF000019505D8A40DEF0FF00FEFB8
:101E18000FF014EF0FF0000E956F010E6FEC23F02A
:101E2800F2A619EF0FF01BEF0FF037EF0FF0F2A04B
:101E380020EF0FF022EF0FF037EF0FF081AC27EF14
:101E48000FF029EF0FF037EF0FF000019651D8A4EB
:101E580030EF0FF032EF0FF037EF0FF0010E966F03
:101E6800000E2EEC23F0F2A63CEF0FF03EEF0FF041
:101E78005AEF0FF0F2A043EF0FF045EF0FF05AEFD3
:101E88000FF081BC4AEF0FF04CEF0FF05AEF0FF054
:101E980000019605D8A453EF0FF055EF0FF05AEF55
:101EA8000FF0000E966F010E2EEC23F0F2A65FEFF6
:101EB8000FF061EF0FF07DEF0FF0F2A066EF0FF07B
:101EC80068EF0FF07DEF0FF081AE6DEF0FF06FEF61
:101ED8000FF07DEF0FF000019751D8A476EF0FF0C7
:101EE80078EF0FF07DEF0FF0010E976F000EEDEC1D
:101EF80022F0F2A682EF0FF084EF0FF0A0EF0FF0C0
:101F0800F2A089EF0FF08BEF0FF0A0EF0FF081BE7A
:101F180090EF0FF092EF0FF0A0EF0FF00001970590
:101F2800D8A499EF0FF09BEF0FF0A0EF0FF0000E81
:101F3800976F010EEDEC22F09DACA5EF0FF0A7EF27
:101F48000FF0B0EF0FF09EACACEF0FF0AEEF0FF06C
:101F5800B0EF0FF075EC2AF0F2AAB5EF0FF0B7EF7B
:101F68000FF0C0EF0FF0F2A4BCEF0FF0BEEF0FF0D0
:101F7800C0EF0FF05DEC29F09DA0C5EF0FF0C7EFA3
:101F88000FF0D0EF0FF09EA0CCEF0FF0CEEF0FF0D8
:101F9800D0EF0FF052EC2AF09DA2D5EF0FF0D7EF5B
:101FA8000FF0E0EF0FF09EA2DCEF0FF0DEEF0FF086
:101FB800E0EF0FF063EC2AF0A0A2E5EF0FF0E7EFF7
:101FC8000FF0F0EF0FF0A1A2ECEF0FF0EEEF0FF033
:101FD800F0EF0FF04BEC2AF09DA4F5EF0FF0F7EFC0
:101FE8000FF000EF10F09EA4FCEF0FF0FEEF0FF0E3
:101FF80000EF10F073EC2AF0A0A005EF10F007EF47
:1020080010F010EF10F0A1A00CEF10F00EEF10F090
:1020180010EF10F071EC2AF09DA815EF10F017EFF3
:1020280010F020EF10F09EA81CEF10F01EEF10F03B
:1020380020EF10F0ACEC29F09DAA25EF10F027EF67
:1020480010F030EF10F09EAA2CEF10F02EEF10F0E9
:1020580030EF10F068EC22F09DA635EF10F037EF66
:1020680010F038EF10F09E509DA63DEF10F03FEFB6
:1020780010F048EF10F09EA644EF10F046EF10F075
:1020880048EF10F06DEC2AF0A0A64DEF10F04FEFDE
:1020980010F058EF10F0A1A654EF10F056EF10F022
:1020A80058EF10F06FEC2AF011C0F4FF10C0F3FFE6
:1020B8000FC0DAFF0EC0D9FF0DC0FBFF0CC0FAFF3E
:1020C8006D9211003050800B396E305030243F6EC5
:1020D8002FAE71EF10F073EF10F074EF10F03F8037
:1020E8003F50D8B47AEF10F07CEF10F08FEF10F07B
:1020F8003F28D8A482EF10F084EF10F08CEF10F096
:10210800000E2D6E000E2E6E000E2F6E000E306E1D
:102118002F8E97EF10F0000E2D6E000E2E6E000E13
:102128002F6E000E306E3450800B391A3450342420
:102138003E6E33AEA2EF10F0A4EF10F0A5EF10F052
:102148003E803E50D8B4ABEF10F0ADEF10F0C0EFCA
:1021580010F03E28D8A4B3EF10F0B5EF10F0BDEFA3
:1021680010F0000E316E000E326E000E336E000E4F
:10217800346E338EC8EF10F0000E316E000E326EE2
:10218800000E336E000E346E3E50D8B4CEEF10F011
:10219800D0EF10F0D8EF10F03F50D8A4D6EF10F0E1
:1021A800D8EF10F0E2EF10F0000E2D6E000E2E6E3C
:1021B800000E2F6E000E306E7AEF12F033502D02A3
:1021C800F3CF44F0F4CF45F044503A6E3B6A3C6A92
:1021D8003D6A4550406E416A426A436A32502E0257
:1021E800F3CF44F0F4CF45F044503A26000E3B229A
:1021F8003C223D2245504026000E412242224322E5
:1022080031502F02F3CF44F0F4CF45F044503A2632
:10221800000E3B223C223D2245504026000E412222
:10222800422243223CC03DF03BC03CF03AC03BF068
:102238003A6A31502E02F3CF44F0F4CF45F04450BF
:102248003A2645503B22000E3C22000E3D223250D9
:102258002D02F3CF44F0F4CF45F044503A264550D0
:102268003B22000E3C22000E3D223CC03DF03BC00C
:102278003CF03AC03BF03A6A31502D02F3CF44F0BB
:10228800F4CF45F044503A2645503B22000E3C22FC
:10229800000E3D2233502E02F3CF44F0F4CF45F028
:1022A8004450402645504122000E4222000E43224F
:1022B80032502F02F3CF44F0F4CF45F0445040267B
:1022C80045504122000E4222000E432233502F0275
:1022D800F3CF44F0F4CF45F04450356E4550366E98
:1022E800376A386A37C038F036C037F035C036F04C
:1022F800356A3550402636504122375042223850F0
:1023080043223AC035F03BC036F03CC037F03DC000
:1023180038F0190E95EF11F0D8903832373236323E
:102328003532E82E90EF11F03550402636504122D4
:1023380037504222385043223CC03DF03BC03CF06D
:102348003AC03BF03A6A3E503FC035F0366A35260F
:10235800000E3622820E3524446EFF0E3620456E5E
:10236800CBEF11F0D89040364136423643363DAE79
:10237800C0EF11F0C2EF11F0C3EF11F04080D89018
:102388003A363B363C363D364406D8A0450642AE82
:10239800D0EF11F0D2EF11F0B6EF11F0000E3E6E53
:1023A8003DAED9EF11F0DBEF11F0FFEF11F0FF0EAA
:1023B8003A14356EFF0E3B14366EFF0E3C14376E22
:1023C8007F0E3D14386E3550361037103810D8B49B
:1023D800F0EF11F0F2EF11F0F6EF11F0010E3E6E92
:1023E800FFEF11F040A0FBEF11F0FDEF11F0FFEF50
:1023F80011F0F2EF11F03E50D8B405EF12F007EFEC
:1024080012F02BEF12F0010E4026000E412242225C
:10241800432243A012EF12F014EF12F02BEF12F048
:1024280040C035F041C036F042C037F043C038F004
:102438003834383237323632353235C040F036C06B
:1024480041F037C042F038C043F0444A452A45BEFF
:1024580036EF12F0455008E14428D8A036EF12F0C4
:1024680038EF12F042EF12F0000E406E000E416E8F
:10247800800E426E7F0E436E70EF12F045BE4FEF36
:1024880012F0455006E14404D8B04DEF12F04FEF7A
:1024980012F05BEF12F0000E406E000E416E000E5F
:1024A800426E000E436E000E396E70EF12F044C09B
:1024B8003FF0FF0E4016FF0E41167F0E4216000E2B
:1024C80043163FA06AEF12F06CEF12F06DEF12F0B6
:1024D800428ED8903F30436E3950431240C02DF0A1
:1024E80041C02EF042C02FF043C030F01200010E60
:1024F800546E000E556E000E566E000E576E000E8E
:10250800586E50505110D8A48CEF12F08EEF12F084
:1025180002EF14F0000E546E4CEF14F0AC98AC942B
:10252800B89650C0D9FF51C0DAFFDECF16F0DECF23
:1025380017F0DECF18F0DECF19F0000E126E120E73
:10254800136E7A0E146E000E156EEDEC20F0070E69
:10255800B3EF12F0D8901532143213321232E82E3B
:10256800AEEF12F0FF0E12241F6EFF0E1320206E26
:10257800FF0E1420216EFF0E1520226E000E4EEC69
:1025880014F01FC055F020C056F021C057F022C0EB
:1025980058F02DEF14F0AC98AC84B89650C0D9FF21
:1025A80051C0DAFFDECF16F0DECF17F0DECF18F01D
:1025B800DECF19F0000E126E120E136E7A0E146E24
:1025C800000E156EEDEC20F0050EF0EF12F0D8902D
:1025D8001532143213321232E82EEBEF12F0FF0EDE
:1025E80012241F6EFF0E1320206EFF0E1420216E82
:1025F800FF0E1520226E000E4EEC14F01FC055F091
:1026080020C056F021C057F022C058F02DEF14F02A
:10261800AC98AC94B88650C0D9FF51C0DAFFDECF71
:1026280016F0DECF17F0DECF18F0DECF19F0000E6F
:10263800126E120E136E7A0E146E000E156EEDECFD
:1026480020F0050E2DEF13F0D89015321432133206
:102658001232E82E28EF13F0FF0E12241F6EFF0E21
:102668001320206EFF0E1420216EFF0E1520226EFF
:10267800000E4EEC14F01FC055F020C056F021C0DB
:1026880057F022C058F02DEF14F0AC98AC84B886FF
:1026980050C0D9FF51C0DAFFDECF16F0DECF17F0F9
:1026A800DECF18F0DECF19F0000E126E120E136E88
:1026B8007A0E146E000E156EEDEC20F0030E6AEF24
:1026C80013F0D8901532143213321232E82E65EF17
:1026D80013F0FF0E12241F6EFF0E1320206EFF0E44
:1026E8001420216EFF0E1520226E000E4EEC14F001
:1026F8001FC055F020C056F021C057F022C058F036
:102708002DEF14F0AC88B89650C0D9FF51C0DAFF4D
:10271800DECF16F0DECF17F0DECF18F0DECF19F0DF
:10272800000E126E120E136E7A0E146E000E156ED7
:10273800EDEC20F0030EA6EF13F0D890153214320A
:1027480013321232E82EA1EF13F0FF0E12241F6E7F
:10275800FF0E1320206EFF0E1420216EFF0E152091
:10276800226E000E4EEC14F01FC055F020C056F03B
:1027780021C057F022C058F02DEF14F0AC88B8866D
:1027880050C0D9FF51C0DAFFDECF16F0DECF17F008
:10279800DECF18F0DECF19F0000E126E120E136E97
:1027A8007A0E146E000E156EEDEC20F0030EE2EFBB
:1027B80013F0D8901532143213321232E82EDDEFAE
:1027C80013F0FF0E12241F6EFF0E1320206EFF0E53
:1027D8001420216EFF0E1520226E000E4EEC14F010
:1027E8001FC055F020C056F021C057F022C058F045
:1027F8002DEF14F0000E546E2DEF14F020EE04F0BF
:102808005050D9265150DA22DF50526E536A535035
:10281800000AD8B412EF14F0FEEF13F05250000A79
:10282800D8B492EF12F0010AD8B4CFEF12F0030A2D
:10283800D8B40CEF13F0010AD8B449EF13F0070A23
:10284800D8B486EF13F0010AD8B4C2EF13F0FEEF44
:1028580013F055C046F056C047F057C048F058C06E
:1028680049F0A6EC1BF04650AF6E55C046F056C076
:1028780047F057C048F058C049F0A6EC1BF047C0D5
:1028880046F048C047F049C048F0496A4650B06E23
:1028980054501200276E2750D8B455EF14F057EF54
:1028A80014F079EF14F022BE5EEF14F05CEF14F030
:1028B80079EF14F01FC023F020C024F021C025F0C8
:1028C80022C026F0231E241E251E261E232A000EA3
:1028D80024222522262223C029F024C02AF025C03C
:1028E8002BF026C02CF081EF14F01FC029F020C077
:1028F8002AF021C02BF022C02CF01F5020102110EC
:102908002210D8A48AEF14F08CEF14F096EF14F08C
:10291800000E1F6E000E206E000E216E000E226E3D
:1029280027EF15F0960E286EA0EF14F0282AD890FD
:102938002C322B322A322932000E2914236E000E33
:102948002A14246E000E2B14256EFE0E2C14266EEF
:102958002350241025102610D8A4B5EF14F0B7EF93
:1029680014F09AEF14F0C5EF14F0282A010E292666
:10297800000E2A222B222C22D8902C322B322A32DB
:102988002932000E2914236E000E2A14246E000E1C
:102998002B14256EFF0E2C14266E235024102510A0
:1029A8002610D8A4DAEF14F0DCEF14F0B9EF14F025
:1029B800E4EF14F02806D89029362A362B362C3620
:1029C8002BBEE9EF14F0EBEF14F0F3EF14F0020E66
:1029D8002860F1EF14F0F3EF14F0DEEF14F028B0F4
:1029E800F8EF14F0FAEF14F0FBEF14F02B9ED890E8
:1029F800283228C023F0246A256A266A23C026F0D4
:102A0800256A246A236A2350291224502A12255041
:102A18002B1226502C122750D8B415EF15F017EFAB
:102A280015F01FEF15F022BE1EEF15F01CEF15F084
:102A38001FEF15F02C8E29C01FF02AC020F02BC0E4
:102A480021F02CC022F01200000E266E000E256E1A
:102A5800000E246E000E276E000E226E1EC0D9FFD7
:102A68001FC0DAFFDF6A1C501D10D8B43EEF15F006
:102A780040EF15F049EF15F01E501F10D8A447EF8E
:102A880015F049EF15F04DEF15F0000E236EFAEF33
:102A980015F0000E256E000E246E24501C24126EB4
:102AA800000E1D20136E000E146EF3EC19F0242A8C
:102AB800030E246462EF15F064EF15F051EF15F082
:102AC80025501C24126E000E1D20136E010E146E6C
:102AD800F3EC19F0000E276E27501C24206E000E10
:102AE8001D20216E040E2024126E000E2120136E6C
:102AF800260E146E000E156E85EC1FF0236E26044C
:102B0800D8A489EF15F08BEF15F0C6EF15F0340E49
:102B1800206EF20EE82EFED7202EFCD727501C245C
:102B2800206E000E1D20216E040E2024126E000E51
:102B38002120136E260E146E000E156E85EC1FF004
:102B4800236EBAEF15F027501C24206E000E1D20AE
:102B5800216E040E2024126E000E2120136E260E04
:102B6800146E000E156E85EC1FF0236E2604D8B483
:102B7800C0EF15F0C2EF15F0A7EF15F0010E226EA9
:102B8800CFEF15F0272A020E2764CDEF15F0CFEF0F
:102B980015F070EF15F02204D8A4D5EF15F0D7EF93
:102BA80015F0F1EF15F02550030DFB0EF324206E00
:102BB800FD0EF420216E27502026000E212220C071
:102BC800F6FF21C0F7FFF86A1EC0D9FF1FC0DAFF61
:102BD8000800F5CFDFFFFAEF15F0252A030E25646C
:102BE800F8EF15F0FAEF15F04FEF15F0235012003B
:102BF80030BE01EF16F004EF16F0010E05EF16F0E7
:102C0800000E376E3750D8B40CEF16F00EEF16F0F2
:102C180012EF16F02F6C301ED8B0302A00019BBF7F
:102C28001AEF16F018EF16F020EF16F0000E346EBB
:102C3800010E336E24EF16F09AC033F09BC034F0C7
:102C480098C035F099C036F03750D8B42EEF16F04A
:102C580030EF16F047EF16F03506D8A03606375095
:102C6800D8A439EF16F03BEF16F041EF16F0000E3E
:102C7800326E2B0E316E45EF16F0000E326E2D0EB1
:102C8800316E31C037F0000E396E1F0E386E000EEF
:102C98000101366F80EF16F03806D8A03906170EF6
:102CA8003824D96E010E3920DA6E2FC012F030C0E8
:102CB80013F0000E156E0A0E146E3DEC20F012C0D3
:102CC80018F013C019F0E4EC28F01850300FDF6E3C
:102CD8003306D8A034063506D8A036062FC012F021
:102CE80030C013F0000E156E0A0E146E65EC1EF05F
:102CF80012C02FF013C030F039BE8BEF16F03950E8
:102D080008E13804D8A08BEF16F08DEF16F0A3EF8A
:102D180016F02F503010D8A494EF16F096EF16F056
:102D280050EF16F034BEA3EF16F0345006E133042A
:102D3800D8B0A1EF16F0A3EF16F050EF16F0375009
:102D4800D8B4A9EF16F0ABEF16F0B6EF16F03806C8
:102D5800D8A03906170E3824D96E010E3920DA6E3C
:102D680037C0DFFF2DC022F02EC023F0170E382405
:102D7800246E010E3920256E35C026F036C027F0A6
:102D880031EC24F0120012C01CF013C01DF01650D4
:102D98001710D8A4D2EF16F0D4EF16F0D6EF16F02D
:102DA80081EF17F01CC0D9FF1DC0DAFF14C0DFFF88
:102DB80016501C24186E17501D20196EFF0E18246B
:102DC800D96EFF0E1920DA6E14C0DFFF175007E125
:102DD800030E165CD8B0F3EF16F0F5EF16F0F7EF28
:102DE80016F081EF17F020EE01F01C50D9261D5087
:102DF800DA2214C0DFFF20EE02F01C50D9261D5045
:102E0800DA2214C0DFFF16501C24186E17501D203C
:102E1800196EFE0E1824D96EFF0E1920DA6E14C032
:102E2800DFFF16501C24186E17501D20196EFD0E5A
:102E38001824D96EFF0E1920DA6E14C0DFFF175060
:102E480007E1070E165CD8B02CEF17F02EEF17F03D
:102E580030EF17F081EF17F020EE03F01C50D92661
:102E68001D50DA2214C0DFFF16501C24186E1750AC
:102E78001D20196EFC0E1824D96EFF0E1920DA6E6B
:102E880014C0DFFF175007E1090E165CD8B04FEFEA
:102E980017F051EF17F053EF17F081EF17F01CC040
:102EA80018F01DC019F0181E191E184A192A030E09
:102EB80018141A6E1B6A1A501C261B501D221A5011
:102EC800165E1B50175AFC0E1616FF0E171678EFD3
:102ED80017F01CC0D9FF1DC0DAFF14C0DFFF1606AB
:102EE800D8A017061C4A1D2A16501710D8A47FEF21
:102EF80017F081EF17F06DEF17F01200000E206E3B
:102F0800000E1F6E000E1E6E000E1D6E8EEF17F067
:102F1800184A192A18C0D9FF19C0DAFF200EDE187E
:102F2800D8B499EF17F09BEF17F08CEF17F018C093
:102F3800D9FF19C0DAFFDF501A6EF70E1A241B6E7C
:102F48001C6AFF0E1C221C5009E1050E1B5CD8A050
:102F5800B0EF17F0B2EF17F08CEF17F0BCEF17F0E7
:102F6800000E1E6E010E1D6E184A192AF1EF17F099
:102F780018C0D9FF19C0DAFFDF501A6E1B6A1B5040
:102F8800000AD8B4CAEF17F0F1EF17F01A502B0A5D
:102F9800D8B4B8EF17F0060AD8B4B4EF17F0F1EFC9
:102FA80017F01FC012F020C013F0000E156E0A0EA5
:102FB800146EEEEC29F018C0D9FF19C0DAFFDF5003
:102FC8001A6E1A50125E000E135A300E12241F6E1B
:102FD800000E1320206EB8EF17F018C0D9FF19C0E3
:102FE800DAFFDF501A6ED00E1A241B6E1C6AFF0E11
:102FF8001C221C5009E10A0E1B5CD8A006EF18F031
:1030080008EF18F0D5EF17F01D501E10D8A40FEFD9
:1030180018F011EF18F01FEF18F01FC01AF020C0B9
:103028001BF01A1E1B1E1A4A1B2A1AC018F01BC0B6
:1030380019F023EF18F01FC018F020C019F0120083
:10304800010E1A6E12501310D8B42DEF18F02FEF8E
:1030580018F040EF18F012C0D9FF13C0DAFFDF30C4
:10306800E832E832070B146E070E14643EEF18F0CE
:1030780040EF18F0A3EF18F0000E1A6EC4EF18F026
:1030880012C0D9FF13C0DAFFDF30E832E832070B8D
:10309800146E010E156E142A54EF18F0D8901536D8
:1030A800142E52EF18F01550FF0A166E12C0D9FFF1
:1030B80013C0DAFFDF50070B176E1750020D6E0EA4
:1030C800F324D96E010EF420DA6EDECF18F0DDCFCE
:1030D80019F018C0D9FF19C0DAFF1650DF16C4EF6F
:1030E80018F012C0D9FF13C0DAFFDF30E832E83237
:1030F800070B146E010E156E142A85EF18F0D89080
:103108001536142E83EF18F012C0D9FF13C0DAFF5A
:10311800DF50070B166E1650020D6E0EF324D96E93
:10312800010EF420DA6EDECF17F0DDCF18F017C0ED
:10313800D9FF18C0DAFF1550DF12C4EF18F012C01B
:10314800D9FF13C0DAFFDFBCACEF18F0AFEF18F00F
:10315800010EB0EF18F0000E146E156A1550000A33
:10316800D8B4B9EF18F040EF18F01450000AD8B4EA
:1031780044EF18F0010AD8B475EF18F040EF18F0D2
:103188001A50120028502910D8A4CDEF18F0CFEF0C
:1031980018F0D3EF18F0000E2D6E5BEF19F0040E47
:1031A80028241C6E000E29201D6E7BEC26F02D6E47
:1031B800050E28241C6E000E29201D6E7BEC26F0BF
:1031C8002D6E000E2C6E000E2B6E2B5028241C6EBC
:1031D8002C5029201D6E7BEC26F02B4A2C2A2CBE65
:1031E800FFEF18F02C5009E1040E2B5CD8A0FFEF7C
:1031F80018F001EF19F0E9EF18F0340E2A6EF20E0C
:10320800E82EFED72A2EFCD728C024F029C025F0A6
:10321800380E266E21EC25F00D0E2A6EFC0EE82ED7
:10322800FED72A2EFCD728C024F029C025F0380E56
:10323800266E21EC25F0640EE82EFED728C024F077
:1032480029C025F0380E266E21EC25F028C024F080
:1032580029C025F0010E266E21EC25F028C024F0A7
:1032680029C025F0020E266E21EC25F028C024F096
:1032780029C025F0060E266E21EC25F028C024F082
:1032880029C025F00C0E266E21EC25F028C024F06C
:1032980029C025F0280E266E21EC25F028C024F040
:1032A80029C025F0800E266E21EC25F02D6E2D50BC
:1032B80012003CC0D9FF3DC0DAFFDECFF6FFDDCFFC
:1032C800F7FFF86A0800F550250AD8A46EEF19F040
:1032D80070EF19F0DDEF19F03CC0D9FF3DC0DAFFFF
:1032E800DE2A000EDD22000E0001996F000E986F95
:1032F80098C0C2F09A699B693CC0D9FF3DC0DAFF0B
:10330800DECF46F0DDCF47F046C0F6FF47C0F7FFF7
:10331800F86A0800F550640AD8B495EF19F097EFE9
:1033280019F0A6EF19F046C0F6FF47C0F7FFF86A94
:103338000800F550690AD8A4A4EF19F0A6EF19F00F
:10334800D4EF19F03EC0D9FF3FC0DAFFDFCF40F01D
:10335800020EDE26DFCF41F0000EDD2240C0D9FF8D
:1033680041C0DAFFDECF42F0DDCF43F0010E462444
:10337800406E000E4720416E3CC0D9FF3DC0DAFFC9
:1033880040C0DEFF41C0DDFF3AC02DF03BC02EF04B
:1033980042C02FF043C030F0FCEC15F0F2EF19F00A
:1033A8003CC0D9FF3DC0DAFFDE2A000EDD22F2EF75
:1033B80019F03CC0D9FF3DC0DAFFDECFF6FFDDCF04
:1033C800F7FFF86A0800F550126E136A3AC014F055
:1033D8003BC015F000EC1EF0D4EF19F01200010EFE
:1033E8001B6E12501310D8B4FCEF19F0FEEF19F051
:1033F8000FEF1AF012C0D9FF13C0DAFFDF30E8323E
:10340800E832070B156E070E15640DEF1AF00FEF73
:103418001AF072EF1AF0000E1B6E87EF1AF012C046
:10342800D9FF13C0DAFFDF30E832E832070B156E38
:10343800010E166E152A23EF1AF0D8901636152E9F
:1034480021EF1AF01650FF0A176E12C0D9FF13C0E9
:10345800DAFFDF50070B186E1850020D5A0EF324CE
:10346800D96E010EF420DA6EDECF19F0DDCF1AF036
:1034780019C0D9FF1AC0DAFF1750DF1687EF1AF004
:1034880012C0D9FF13C0DAFFDF30E832E832070B89
:10349800156E010E166E152A54EF1AF0D8901636CE
:1034A800152E52EF1AF012C0D9FF13C0DAFFDF5001
:1034B800070B176E1750020D5A0EF324D96E010E22
:1034C800F420DA6EDECF18F0DDCF19F018C0D9FF7E
:1034D80019C0DAFF1650DF1287EF1AF01450156E74
:1034E800166A1650000AD8B47CEF1AF00FEF1AF0DB
:1034F8001550000AD8B413EF1AF0010AD8B444EFF3
:103508001AF00FEF1AF01B501200010E0A6E01504C
:103518000210D8B492EF1AF094EF1AF0A5EF1AF04F
:1035280001C0D9FF02C0DAFFDF30E832E832070B0A
:10353800046E070E0464A3EF1AF0A5EF1AF008EF63
:103548001BF0000E0A6E1DEF1BF001C0D9FF02C070
:10355800DAFFDF30E832E832070B046E010E056E41
:10356800042AB9EF1AF0D8900536042EB7EF1AF0EE
:103578000550FF0A066E01C0D9FF02C0DAFFDF500E
:10358800070B076E0750020D5A0EF324D96E010E71
:10359800F420DA6EDECF08F0DDCF09F008C0D9FFDD
:1035A80009C0DAFF0650DF161DEF1BF001C0D9FF76
:1035B80002C0DAFFDF30E832E832070B046E010E92
:1035C800056E042AEAEF1AF0D8900536042EE8EFC3
:1035D8001AF001C0D9FF02C0DAFFDF50070B066EF0
:1035E8000650020D5A0EF324D96E010EF420DA6E3D
:1035F800DECF07F0DDCF08F007C0D9FF08C0DAFF3B
:103608000550DF121DEF1BF00350046E056A0550CC
:10361800000AD8B412EF1BF0A5EF1AF00450000A04
:10362800D8B4A9EF1AF0010AD8B4DAEF1AF0A5EF66
:103638001AF00A501200010E166E12501310D8A478
:1036480028EF1BF02AEF1BF07EEF1BF0000E166E22
:10365800A4EF1BF012C0D9FF13C0DAFFDECF80F051
:10366800DDCF81F020EE02F01250D9261350DA2275
:10367800DECF82F0DDCF83F0A4EF1BF012C0D9FFBC
:1036880013C0DAFFDECF84F0DDCF85F020EE02F044
:103698001250D9261350DA22DECF86F0DDCF87F01C
:1036A800A4EF1BF012C0D9FF13C0DAFFDECF88F0F9
:1036B800DDCF89F020EE02F01250D9261350DA221D
:1036C800DECF8AF0DDCF8BF0A4EF1BF012C0D9FF5C
:1036D80013C0DAFFDECF8CF0DDCF8DF020EE02F0E4
:1036E8001250D9261350DA22DECF8EF0DDCF8FF0BC
:1036F800A4EF1BF020EE04F01250D9261350DA2262
:10370800DF30E832E832070B146E156A1550000AEC
:10371800D8B491EF1BF02AEF1BF01450040AD8B468
:103728002EEF1BF0010AD8B442EF1BF0030AD8B4FD
:1037380056EF1BF0010AD8B46AEF1BF02AEF1BF012
:1037480016501200483449344F6E4F50D8A4AFEF8A
:103758001BF0B1EF1BF0BBEF1BF0000E466E000E26
:10376800476E000E486E000E496E28EF1CF046C0EA
:103778004AF047C04BF048C04CF049C04DF0200E0D
:10378800CBEF1BF0D8904D324C324B324A32E82EF8
:10379800C6EF1BF04A504E6E488EFF0E4616FF0EBF
:1037A8004716FF0E4816000E4916960E4F5E4FBE7E
:1037B800E2EF1BF0E0EF1BF0F8EF1BF04F50800A30
:1037C800970FD8B0EAEF1BF0ECEF1BF0EEEF1BF011
:1037D800B1EF1BF0D89049324832473246324F3E5B
:1037E800EEEF1BF010EF1CF01F0E4F64FEEF1BF006
:1037F80000EF1CF008EF1CF0B1EF1BF0D890463634
:103808004736483649364F064F50D8A40EEF1CF0BD
:1038180010EF1CF002EF1CF04E50D8B416EF1CF05D
:1038280018EF1CF020EF1CF0491E481E471E466C7E
:10383800000E47224822492246C046F047C047F0BA
:1038480048C048F049C049F01200010E186E1550E2
:103858001610D8A432EF1CF034EF1CF038EF1CF02F
:10386800000E186EAAEF1CF0C29020EE04F015505E
:10387800D9261650DA22DF50176E17461746174614
:10388800C0501718C70B1718C06E20EE05F015505A
:10389800D9261650DA22DF50176EC0501718F80BC9
:1038A8001718C06E20EE03F01550D9261650DA22EC
:1038B800DF50176E17461746C2501718C30B171854
:1038C800C26E20EE03F01550D9261650DA22DF50CA
:1038D80029EC1DF09D8C9E9CF28EF28C15C0D9FFB0
:1038E80016C0DAFFDECFC0F0DDCFC1F020EE06F063
:1038F8001550D9261650DA22DFA202D0C08E01D088
:10390800C09E20EE06F01550D9261650DA22DFA008
:1039180090EF1CF092EF1CF096EF1CF0C198C19A42
:10392800A9EF1CF020EE06F01550D9261650DA2221
:10393800DFB0A1EF1CF0A3EF1CF0A7EF1CF0C188CB
:10394800C18AA9EF1CF0C198C19AC2801850120010
:1039580012501310D8A4B3EF1CF0B5EF1CF0B7EF5A
:103968001CF028EF1DF020EE06F01250D926135057
:10397800DA22DFA0C2EF1CF0C4EF1CF027EF1DF025
:1039880020EE06F01250D9261350DA22DFA2CFEF2C
:103998001CF0D1EF1CF0F4EF1CF09D8AF28EF28C33
:1039A80020EE0CF01250D9261350DA22DECFA0F008
:1039B800DDCFA1F020EE0EF01250D9261350DA22F6
:1039C800DECF9EF0DDCF9FF020EE10F01250D9260A
:1039D8001350DA22DECF9CF0DDCF9DF004EF1DF00E
:1039E80020EE06F01250D9261350DA22DFB2FFEF8C
:1039F8001CF001EF1DF004EF1DF09D9A04EF1DF07F
:103A080020EE08F01250D9261350DA22DFA40FEF67
:103A18001DF011EF1DF014EF1DF0AB8C24EF1DF01D
:103A280020EE08F01250D9261350DA22DFB41FEF27
:103A38001DF021EF1DF024EF1DF0AB9C24EF1DF0CD
:103A4800AB8828EF1DF0AB981200146E55EF1DF0EF
:103A5800928096EF1DF0928296EF1DF0928496EF79
:103A68001DF0928696EF1DF0928A96EF1DF09680D3
:103A780096EF1DF0968296EF1DF0968496EF1DF056
:103A8800938496EF1DF0938696EF1DF0938296EF40
:103A98001DF0938896EF1DF0938096EF1DF096EF3A
:103AA8001DF01450126E136A1350000AD8B45FEF59
:103AB8001DF053EF1DF01250000AD8B42CEF1DF082
:103AC800010AD8B42FEF1DF0030AD8B432EF1DF065
:103AD800010AD8B435EF1DF0070AD8B438EF1DF045
:103AE800010AD8B43BEF1DF0030AD8B43EEF1DF02D
:103AF800010AD8B441EF1DF00F0AD8B444EF1DF005
:103B0800010AD8B447EF1DF0030AD8B44AEF1DF0F4
:103B1800010AD8B44DEF1DF0070AD8B450EF1DF0D4
:103B280053EF1DF0120012501310D8A49EEF1DF091
:103B3800A0EF1DF0A2EF1DF0FFEF1DF020EE08F042
:103B48001250D9261350DA22DFA0ADEF1DF0AFEFE7
:103B58001DF0FEEF1DF020EE08F01250D92613508C
:103B6800DA22DFA2BAEF1DF0BCEF1DF0CBEF1DF09B
:103B78009D88F28EF28C20EE0AF01250D92613504E
:103B8800DA22DECFA2F0DDCFA3F0DBEF1DF020EECE
:103B980008F01250D9261350DA22DFB2D6EF1DF002
:103BA800D8EF1DF0DBEF1DF09D98DBEF1DF020EE48
:103BB80008F01250D9261350DA22DFA4E6EF1DF0E0
:103BC800E8EF1DF0EBEF1DF0AC8CFBEF1DF020EEE5
:103BD80008F01250D9261350DA22DFB4F6EF1DF0A0
:103BE800F8EF1DF0FBEF1DF0AC9CFBEF1DF0AC8A6D
:103BF800FFEF1DF0AC9A120014501510D8B407EF5F
:103C08001EF009EF1EF012EF1EF014501510D8A484
:103C180010EF1EF012EF1EF017EF1EF0125077ECA7
:103C28002AF064EF1EF020EE0AF01450D926155041
:103C3800DA22DE50DE10D8B424EF1EF026EF1EF094
:103C480041EF1EF020EE0AF01450D9261550DA2262
:103C580010EE03F01450E1261550E222DE50E65C27
:103C6800E650800A1A6EDE50800A1A58D8B03FEF24
:103C78001EF041EF1EF064EF1EF020EE03F014502A
:103C8800D9261550DA22DECF16F0DDCF17F014C092
:103C9800D9FF15C0DAFFDECF18F0DDCF19F01650C6
:103CA8001824D96E17501920DA6E12C0DFFF20EEE3
:103CB80003F01450D9261550DA22DE2A000EDD2230
:103CC8001200000E176E15BE6EEF1EF06CEF1EF0A0
:103CD80074EF1EF0146C151ED8B0152A010E176E5D
:103CE80013BE7BEF1EF079EF1EF081EF1EF0126C11
:103CF800131ED8B0132A010E171A000E196E000EE3
:103D0800186E14501510D8B48CEF1EF08EEF1EF0FC
:103D1800B6EF1EF0010E166E96EF1EF0D890143610
:103D28001536162A15AE9BEF1EF09DEF1EF092EF8A
:103D38001EF0D890183619361450125C15501358C6
:103D4800D8A0A9EF1EF0ABEF1EF0B0EF1EF0145094
:103D5800125E1550135A1880D89015321432162E48
:103D68009DEF1EF01750D8B4BCEF1EF0BEEF1EF04A
:103D7800C2EF1EF0186C191ED8B0192A18C012F01C
:103D880019C013F01200010E2E6E28502910D8A465
:103D9800D0EF1EF0D2EF1EF0D6EF1EF0000E2E6E02
:103DA80026EF1FF02B0609EF1FF028C024F029C0CA
:103DB80025F02B50800F266E21EC25F02E6E26EF75
:103DC8001FF028C024F029C025F02B50C00F266E04
:103DD80021EC25F02E6E26EF1FF028C024F029C014
:103DE80025F02B50940F266E21EC25F02E6E26EF31
:103DF8001FF028C024F029C025F02B50D40F266EC0
:103E080021EC25F02E6E26EF1FF02A502C6E2D6A1D
:103E18002D50000AD8B413EF1FF026EF1FF02C50D6
:103E2800010AD8B4D9EF1EF0030AD8B4E5EF1EF0A2
:103E3800010AD8B4F1EF1EF0070AD8B4FDEF1EF05E
:103E480026EF1FF02E501200010E0001FB6F20EE2E
:103E5800F5F0050EDE6AE806FDE2000EFC6F5A502A
:103E68005B10D8A43AEF1FF03CEF1FF040EF1FF0B3
:103E7800000EFB6F83EF1FF05AC012F05BC013F007
:103E8800000E156E200E146E000E176E050E166EBF
:103E9800C7EC16F020EE05F05A50D9265B50DA220E
:103EA800DF6AF50E506E000E516EFC0E526EFF0E5C
:103EB800536E58C054F059C055F09AEC27F074EF7F
:103EC8001FF0F50EFC25D96EDA6A000EDA22FC51D5
:103ED8005A24E16E000E5B20E26EDFCFE7FFFC2B79
:103EE800F50E0001FC25D96EDA6A000EDA22DF50E1
:103EF800D8A481EF1FF083EF1FF065EF1FF0FB518F
:103F08001200010E1B6E12501310D8B48EEF1FF062
:103F180090EF1FF0AAEF1FF012C0D9FF13C0DAFF0D
:103F2800DF30E832E832070B166E080E16609FEF96
:103F38001FF0A1EF1FF0AAEF1FF014501510D8A41E
:103F4800A8EF1FF0AAEF1FF0AEEF1FF0000E1B6ED8
:103F5800DFEF1FF012C0D9FF13C0DAFFDF30E832FD
:103F6800E832070B166E12C0D9FF13C0DAFFDF5014
:103F7800070B176E1750020D640EF324D96E010E4D
:103F8800F420DA6EDECF18F0DDCF19F018C0D9FFB3
:103F980019C0DAFFDF501A6E162AD5EF1FF0D89035
:103FA8001A32162ED3EF1FF01A50010B14C0D9FF86
:103FB80015C0DAFFDF6E1B501200E6C01FF0E5C027
:103FC80020F0E4C021F0E3C022F01B501C10D8A45C
:103FD800F0EF1FF0F2EF1FF0F6EF1FF0000E1E6E6D
:103FE8003BEF20F0C69A1F0E126E000E136E24ECE3
:103FF80018F01E6E200E126E000E136E24EC18F0D0
:104008001E6E210E126E000E136E24EC18F01E6E3A
:10401800220E126E000E136E24EC18F01E6E1BC0DA
:10402800D9FF1CC0DAFFDF50070B1D6EC6501D18E4
:10403800F00B1D18C66E1BC0D9FF1CC0DAFFDFA627
:1040480002D0C68801D0C6981BC0D9FF1CC0DAFFB1
:10405800DFAA02D0C78C01D0C79C1BC0D9FF1CC0E7
:10406800DAFFDFA802D0C78E01D0C79EC68A1E50CD
:104078001200000E176E13BE46EF20F044EF20F03A
:104088004CEF20F0126C131ED8B0132A010E176ED5
:1040980015BE53EF20F051EF20F057EF20F0146CCD
:1040A800151ED8B0152A14501510D8B45EEF20F09C
:1040B80060EF20F084EF20F0010E166E68EF20F01C
:1040C800D89014361536162A15AE6DEF20F06FEF1E
:1040D80020F064EF20F01450125C15501358D8A04B
:1040E80078EF20F07AEF20F07EEF20F01450125E87
:1040F8001550135AD89015321432162E6FEF20F03F
:104108001750D8B48AEF20F08CEF20F090EF20F011
:10411800126C131ED8B0132A12C012F013C013F079
:104128001200010E196E12501310D8B49EEF20F031
:10413800A0EF20F0A9EF20F014501510D8A4A7EF95
:1041480020F0A9EF20F0ADEF20F0000E196EEBEF94
:1041580020F020EE06F01250D9261350DA22DFA202
:10416800B8EF20F0BAEF20F0C4EF20F014C0D9FF68
:1041780015C0DAFFC3CFDEFFC4CFDDFFEBEF20F0C1
:1041880020EE06F01250D9261350DA22DFB2CFEF14
:1041980020F0D1EF20F0BAEF20F0C350C4CF16F0D2
:1041A800176A16C017F0166A1626000E1722060E92
:1041B800186E173417321632182EDDEF20F014C09F
:1041C800D9FF15C0DAFF16C0DEFF17C0DDFF195092
:1041D8001200000E1A6E000E1B6E000E1C6E000EF2
:1041E8001D6E1650171018101910D8B4FEEF20F0D5
:1041F80000EF21F036EF21F0010E1E6E0AEF21F0DC
:10420800D89016361736183619361E2A19AE0FEFFB
:1042180021F011EF21F004EF21F0D8901A361B3667
:104228001C361D361650125C175013581850145867
:1042380019501558D8A023EF21F025EF21F02EEFC3
:1042480021F01650125E1750135A1850145A19506C
:10425800155A1A80D89019321832173216321E2E73
:1042680011EF21F01AC012F01BC013F01CC014F09B
:104278001DC015F01200010E2C6E28502910D8B45C
:1042880048EF21F04AEF21F053EF21F02A502B108C
:10429800D8A451EF21F053EF21F072EF21F0000E76
:1042A8002C6E8BEF21F028C024F029C025F02AC0FD
:1042B800F6FF2BC0F7FF000EF86E0F0EF76403D061
:1042C8000800F55005D0F6CFE9FFF7CFEAFFEF5029
:1042D800266EE6EC24F02C6E2A4A2B2A2AC0F6FF1A
:1042E8002BC0F7FF000EF86E0F0EF76403D008001E
:1042F800F55005D0F6CFE9FFF7CFEAFFEF500009F8
:10430800D8A489EF21F08BEF21F057EF21F02C5042
:1043180012001C501D10D8A494EF21F096EF21F044
:10432800A2EF21F0090E1E649CEF21F09EEF21F010
:10433800A2EF21F0000E1F6ED5EF21F01CC012F085
:104348001DC013F01E50010B146EF3EC19F01F6E14
:10435800010E1C24126E000E1D20136ED8901E3004
:10436800010B146EF3EC19F01F6E020E1C24126E72
:10437800000E1D20136E1E40E8423F0B010B146E09
:10438800F3EC19F01F6E030E1C24126E000E1D2094
:10439800136E1E38E8461F0B010B146EF3EC19F070
:1043A8001F6E1F50120019501A10D8A4DEEF21F00A
:1043B800E0EF21F0E4EF21F0000E1B6E1FEF22F07A
:1043C800D59E19C012F01AC013F0B1EC26F019C02E
:1043D80012F01AC013F0F1EC23F019C012F01AC051
:1043E80013F0ABEC22F0F28AF294F28EF28C19C040
:1043F800D9FF1AC0DAFFDECFB0F0DDCFB1F019C0B7
:1044080012F01AC013F020EE03F01950D9261A50F2
:10441800DA22DECF14F0DDCF15F0AAEC24F01B6E03
:1044280020EE03F01950D9261A50DA22DECFAEF06A
:10443800DDCFAFF0D58E1B501200E20EF66E4E0E99
:10444800F76E000EF86E01EE5AF010EE51F009000A
:10445800F5CFEEFFE550E150FAE14C0EF66E540E42
:10446800F76E000EF86E00EED8F010EE1DF00900A1
:10447800F5CFEEFFE550E150FAE1BC0EF66E540EB2
:10448800F76E000EF86E00EE5CF010EE09F0090011
:10449800F5CFEEFFE550E150FAE101EE00F05A0EDB
:1044A800EE6AE806FDE100EE80F0580EEE6AE806D6
:1044B800FDE100EE65F0080EEE6AE806FDE16D909C
:1044C8006D92000109EF00F00001A051A111D8B4CC
:1044D80070EF22F072EF22F07EEF22F002D87EEF2A
:1044E80022F00500FA6EA051FD6EA151FE6EFF6A22
:1044F800FA50120000019E519F11D8B486EF22F0A5
:1045080088EF22F094EF22F002D894EF22F0050011
:10451800FA6E9E51FD6E9F51FE6EFF6AFA501200B0
:1045280000019C519D11D8B49CEF22F09EEF22F01F
:10453800AAEF22F002D8AAEF22F00500FA6E9C51E9
:10454800FD6E9D51FE6EFF6AFA5012001200125065
:104558001310D8A4B2EF22F0B4EF22F0C9EF22F082
:10456800ECEF22F0D59620EE05F01250D926135024
:10457800DA22DF50146ED5501418F80B1418D56EC3
:10458800ECEF22F0D586ECEF22F020EE06F0125088
:10459800D9261350DA22DFB6D4EF22F0D7EF22F073
:1045A800010ED8EF22F0000E146E156A1550000A9D
:1045B800D8B4E1EF22F0B4EF22F01450000AD8B4D6
:1045C800C6EF22F0010AD8B4B6EF22F0B4EF22F019
:1045D80012000B6EF2900B50D8A4F5EF22F0F7EF13
:1045E80022F00FEF23F000018C518D11D8B4FFEFAA
:1045F80022F001EF23F02DEF23F002D80DEF23F086
:104608000500FA6E8C51FD6E8D51FE6EFF6AFA50F0
:1046180012002DEF23F00B04D8A415EF23F017EFA9
:1046280023F02DEF23F000018E518F11D8B41FEF26
:1046380023F021EF23F02DEF23F002D82DEF23F004
:104648000500FA6E8E51FD6E8F51FE6EFF6AFA50AC
:10465800120012000B6EF2900B50D8A436EF23F024
:1046680038EF23F050EF23F0000188518911D8B4B6
:1046780040EF23F042EF23F06EEF23F002D84EEF25
:1046880023F00500FA6E8851FD6E8951FE6EFF6AAF
:10469800FA5012006EEF23F00B04D8A456EF23F063
:1046A80058EF23F06EEF23F000018A518B11D8B434
:1046B80060EF23F062EF23F06EEF23F002D86EEF85
:1046C80023F00500FA6E8A51FD6E8B51FE6EFF6A6B
:1046D800FA50120012000B6EF2900B50D8A477EF2C
:1046E80023F079EF23F091EF23F000018451851135
:1046F800D8B481EF23F083EF23F0AFEF23F002D893
:104708008FEF23F00500FA6E8451FD6E8551FE6E21
:10471800FF6AFA501200AFEF23F00B04D8A497EF0A
:1047280023F099EF23F0AFEF23F0000186518711B2
:10473800D8B4A1EF23F0A3EF23F0AFEF23F002D812
:10474800AFEF23F00500FA6E8651FD6E8751FE6EBD
:10475800FF6AFA50120012000B6EF2900B50D8A4A8
:10476800B8EF23F0BAEF23F0D2EF23F00001805125
:104778008111D8B4C2EF23F0C4EF23F0F0EF23F097
:1047880002D8D0EF23F00500FA6E8051FD6E8151FA
:10479800FE6EFF6AFA501200F0EF23F00B04D8A463
:1047A800D8EF23F0DAEF23F0F0EF23F00001825185
:1047B8008311D8B4E2EF23F0E4EF23F0F0EF23F015
:1047C80002D8F0EF23F00500FA6E8251FD6E835196
:1047D800FE6EFF6AFA501200120012501310D8A48D
:1047E800F8EF23F0FAEF23F00DEF24F030EF24F088
:1047F800D58A20EE06F01250D9261350DA22DFA20D
:1048080002D0D58801D0D59830EF24F0D59A30EF72
:1048180024F020EE06F01250D9261350DA22DFB029
:1048280018EF24F01BEF24F0010E1CEF24F0000E0B
:10483800146E156A1550000AD8B425EF24F0FAEF63
:1048480023F01450000AD8B40AEF24F0010AD8B4AF
:10485800FCEF23F0FAEF23F0120027BE36EF24F026
:1048680038EF24F03EEF24F026C02BF027C02CF0C0
:1048780042EF24F0000E2C6E000E2B6E000E2A6EF6
:10488800000E296E54EF24F0000E136E200E126EE7
:1048980022C014F023C015F000EC1EF0294A2A2A81
:1048A8002B50295C2A50800A286E2C50800A2858E0
:1048B800D8A061EF24F063EF24F048EF24F024C07F
:1048C8001BF025C01CF022C01DF023C01EF0A1EC77
:1048D80028F0120020502110D8A475EF24F077EFAB
:1048E80024F07BEF24F0000E246EA8EF24F0000ED5
:1048F800256E255020241C6E000E21201D6E7BEC99
:1049080026F0252A030E25648CEF24F08EEF24F080
:104918007DEF24F0000E266E26502024226E000E15
:104928002120236E040E2224126E000E2320136E03
:1049380024EC18F0246E262A030E2664A6EF24F031
:10494800A8EF24F090EF24F024501200010E186E06
:1049580012501310D8A4B3EF24F0B5EF24F0C1EF30
:1049680024F0000E186EE4EF24F014C0D6FFE4EF34
:1049780024F01550D76EB9EF24F020EE06F012504F
:10498800D9261350DA22DFB4CCEF24F0CFEF24F08D
:10499800010ED0EF24F0000E166E176A1750000AA9
:1049A800D8B4D9EF24F0B5EF24F01650000AD8B4E3
:1049B800BDEF24F0010AD8B4B9EF24F0B5EF24F024
:1049C8001850120024502510D8A4EDEF24F0EFEF72
:1049D80024F0F3EF24F0000E276E1FEF25F0050EEC
:1049E8002424126E000E2520136E010E146EF3ECB3
:1049F80019F0276E24C01CF025C01DF026380F0BB7
:104A08001E6E5CEC25F0276E24C01CF025C01DF03E
:104A1800EAEC27F0276E24C01CF025C01DF026C044
:104A28001EF05CEC25F0276E24C01CF025C01DF09C
:104A3800EAEC27F0276E2750120024502510D8A43E
:104A480028EF25F02AEF25F02EEF25F0000E276E2F
:104A58005AEF25F0050E2424126E000E2520136E41
:104A6800000E146EF3EC19F0276E24C01CF025C05C
:104A78001DF026380F0B1E6E5CEC25F0276E24C047
:104A88001CF025C01DF0EAEC27F0276E24C01CF0AE
:104A980025C01DF026C01EF05CEC25F0276E24C052
:104AA8001CF025C01DF0EAEC27F0276E27501200F5
:104AB8001C501D10D8A463EF25F065EF25F069EFB1
:104AC80025F0000E216E95EF25F0000E236E000EE6
:104AD800226E22501C24126E23501D20136E22C0F9
:104AE8001FF01EC020F01F2A7CEF25F0D89020323E
:104AF8001F2E7AEF25F02050010B146EF3EC19F0FD
:104B0800216E224A232A23BE93EF25F0235009E180
:104B1800040E225CD8A093EF25F095EF25F06DEFF9
:104B280025F021501200000E176E000E166E14505C
:104B38001510D8B4A2EF25F0A4EF25F0CCEF25F09E
:104B4800010E186EACEF25F0D89014361536182AD9
:104B580015AEB1EF25F0B3EF25F0A8EF25F0D8900A
:104B6800163617361450125C15501358D8A0BFEFDC
:104B780025F0C1EF25F0C6EF25F01450125E155050
:104B8800135A1680D89015321432182EB3EF25F028
:104B980016C012F017C013F012001A501B10D8B428
:104BA800D8EF25F0DAEF25F0E3EF25F01D501E10C1
:104BB800D8A4E1EF25F0E3EF25F0E7EF25F0000EAC
:104BC8001F6E09EF26F01AC015F01BC016F01CC0A6
:104BD80017F024EC29F01F6E1AC012F01BC013F056
:104BE80014EC2AF01F6EC2B2FCEF25F0FEEF25F0A0
:104BF800F7EF25F01AC012F01BC013F01DC014F017
:104C08001EC015F095EC20F01F6E1F501200620EAA
:104C18001B6E000E1C6EE1EC1FF00001FD6FF40E20
:104C2800126E000E136E24EC18F00001FD6F9B0E3F
:104C3800206E010E216E12EC28F00001FD6F8D0E22
:104C4800156E010E166E29EC1CF00001FD6F7B0E2F
:104C5800596E010E5A6E44EC26F00001FD6F640E89
:104C68001C6E000E1D6E7BEC26F00001FD6F630EBE
:104C78001C6E000E1D6E7BEC26F00001FD6F12000D
:104C8800DEC0F6F0DDC0F7F059505A10D8A44FEF47
:104C980026F051EF26F056EF26F0000E0001F56FD2
:104CA80078EF26F0AB9E59C050F05AC051F07BEC1B
:104CB80012F0F60E126E000E136E24EC18F0F70EBA
:104CC800126E000E136E24EC18F00001F56F59C037
:104CD80012F05AC013F097EC1DF059C012F05AC0E8
:104CE80013F0ACEC1CF0AB8E0001F55112001C5017
:104CF8001D10D8B482EF26F084EF26F095EF26F049
:104D08001CC0D9FF1DC0DAFFDF30E832E832070BDC
:104D18001E6E070E1E6493EF26F095EF26F099EFAE
:104D280026F0000E1F6EAFEF26F01CC012F01DC05B
:104D380013F024EC18F01F6E1CC012F01DC013F005
:104D48001CC0D9FF1DC0DAFF000EDFBE010E146EB5
:104D5800F3EC19F01F6E1F50120012501310D8A454
:104D6800B8EF26F0BAEF26F0C2EF26F0E5EF26F00E
:104D7800D58CE5EF26F0D59CE5EF26F020EE06F081
:104D88001250D9261350DA22DFB4CDEF26F0D0EF37
:104D980026F0010ED1EF26F0000E146E156A15509C
:104DA800000AD8B4DAEF26F0BAEF26F01450000A59
:104DB800D8B4BFEF26F0010AD8B4BCEF26F0BAEF9A
:104DC80026F0120020502110D8A4EDEF26F0EFEFC6
:104DD80026F0F3EF26F0000E226E15EF27F020C024
:104DE8001CF021C01DF07BEC26F0226E010E202461
:104DF8001C6E000E21201D6E7BEC26F0226E020E2A
:104E080020241C6E000E21201D6E7BEC26F0226EE5
:104E1800030E20241C6E000E21201D6E7BEC26F054
:104E2800226E225012002F503010D8B41EEF27F0F7
:104E380020EF27F029EF27F033503410D8A427EFBC
:104E480027F029EF27F02DEF27F0000E356E42EFFF
:104E580027F02FC028F030C029F031C02AF032C026
:104E68002BF0C7EC1EF02FC028F030C029F033C05B
:104E78002AF034C02BF03FEC21F0356E355012008B
:104E88005A6E010E5B6E58505910D8A44EEF27F099
:104E980050EF27F054EF27F0000E5B6E6FEF27F00E
:104EA80058C012F059C013F0000E156E000E146EA3
:104EB800000E176E040E166EC7EC16F058C050F0B0
:104EC80059C051F0FC0E526EFF0E536E5AC054F08A
:104ED800556A9AEC27F05B501200890F8A0F8B0FE6
:104EE8008C0F8D0F800F810F820F830F840F920F0D
:104EF800930F940F950F960F410101802500000034
:104F08000001000100000000000000000000000097
:104F180000060503085200DC0B03086A5480547924
:0B4F2800000828301001030B131B01D0
:104F3400540E0101AB6F000EAC6F50C0ADF151C007
:104F4400AEF1000EB16F000EB06F000EB86F000E20
:104F5400B76FAD0E486E010E496E52C04AF053C091
:104F64004BF0AB0E4C6E010E4D6EC2EC27F00101FE
:104F7400B0515024D96EB1515120DA6EDF6A12005B
:104F84004AC04EF04BC04FF0D6EF27F048C03AF07D
:104F940049C03BF04E0E3C6E000E3D6E4CC03EF0E0
:104FA4004DC03FF05DEC19F04EC0F6FF4FC0F7FF67
:104FB400F86A0800F5500009D8A4E3EF27F0E5EFFC
:104FC40027F0C8EF27F0000E496E000E486E12005D
:104FD4001C501D10D8A4F1EF27F0F3EF27F0F7EFE2
:104FE40027F0000E1E6E10EF28F0040E1C24126E23
:104FF400000E1D20136E010E146EF3EC19F0030E57
:10500400E82EFED700F0040E1C24126E000E1D20A4
:10501400136E000E146EF3EC19F01E6E1E50120087
:1050240020502110D8A419EF28F01BEF28F01FEF0F
:1050340028F0000E226E36EF28F0F296F290040E5D
:1050440020241C6E000E21201D6E7BEC26F020C057
:1050540012F021C013F01FEC1BF020C012F021C08D
:1050640013F0DAEC29F0226E225012002F50301087
:10507400D8A43FEF28F041EF28F045EF28F0000EC8
:10508400346E59EF28F02FC028F030C029F031C019
:105094002AF032C02BF0C7EC1EF0346E2FC024F07F
:1050A40030C025F033C026F0E6EC24F0346E3450E2
:1050B4001200010E166E200E12181310D8B465EFEC
:1050C40028F067EF28F07AEF28F0F70E1224146E18
:1050D400FF0E1320156E155009E1050E145CD8A0BF
:1050E40076EF28F078EF28F07AEF28F0000E166EAD
:1050F40016C012F0136A1200000EF2BE010E156EF5
:105104001350030BAA6E12C0A9FF14C0A8FFA69ED9
:10511400A69CA684F29E550EA76EAA0EA76EA68222
:10512400A6B297EF28F099EF28F092EF28F0A69412
:1051340015B002D0F29E01D0F28E010E1200000EC4
:10514400216E000E206EB2EF28F01FC012F0136A19
:105154001DC014F01EC015F000EC1EF0204A212AD8
:1051640020501B24D96E21501C20DA6EDF501F6E94
:105174001F50D8A4C0EF28F0C2EF28F0A7EF28F002
:105184001200010E166E14501510D8A4CCEF28F09E
:10519400CEEF28F0D2EF28F0000E166EE2EF28F0E2
:1051A4001350030BAA6E12C0A9FFA69EA69CA6804C
:1051B40000F000F014C0D9FF15C0DAFFA8CFDFFF5C
:1051C4001650120019BEF1EF28F0195006E1180428
:1051D400D8B0EFEF28F0F1EF28F0FFEF28F018C077
:1051E4001AF019C01BF01A1E1B1E1A4A1B2A1AC0D9
:1051F40018F01BC019F003EF29F018C018F019C0FB
:1052040019F012000001C751D8A40BEF29F00DEFDB
:1052140029F020EF29F0090EC76F010EC56FC651A2
:10522400D8B417EF29F019EF29F01CEF29F0C607BD
:1052340023EF29F0020EC56F23EF29F0010EC56F8D
:10524400C7071200010E196E15501610D8A42DEFC1
:1052540029F02FEF29F033EF29F0000E196E3FEFFC
:1052640029F017C018F018461846C2501818C30B76
:105274001818C26E175029EC1DF019501200010EB7
:10528400156E12501310D8A44AEF29F04CEF29F0F0
:1052940050EF29F0000E156E5BEF29F014C0C9FF22
:1052A400C7A057EF29F059EF29F052EF29F09E9645
:1052B400C95015501200F2940001AF51D76EAEC020
:1052C400D6FFB051B111D8B46AEF29F06CEF29F0D0
:1052D40078EF29F002D878EF29F00500FA6EB05182
:1052E400FD6EB151FE6EFF6AFA5012001200010EFB
:1052F400146E9EAA80EF29F082EF29F08AEF29F03C
:1053040012C0D9FF13C0DAFFAECFDFFF91EF29F04F
:1053140012C0D9FF13C0DAFFDF6A000E146E1450F6
:1053240012005C0E286E000E296EC6EC18F0ED0E0D
:10533400206E000E216E6EEC24F0A60E206E010E7F
:10534400216EE6EC26F0A10E206E010E216EE6EC35
:1053540026F012009D980001A251A311D8B4B5EF14
:1053640029F0B7EF29F0C3EF29F002D8C3EF29F0F1
:105374000500FA6EA251FD6EA351FE6EFF6AFA504B
:1053840012001200D00E1224146EFF0E1320156E9C
:1053940015500AE10A0E145CD8A0D3EF29F0D6EF19
:1053A40029F0010ED7EF29F0000E126E136A1200D5
:1053B400010E146E12501310D8A4E3EF29F0E5EF98
:1053C40029F0E9EF29F0000E146EECEF29F0F28CCD
:1053D400F28EF2861450120012501402F3CF16F01B
:1053E400F4CF17F012501502F3501726135014027D
:1053F400F350172616C012F017C013F01200010E56
:10540400146E12501310D8A40AEF2AF00CEF2AF0ED
:1054140010EF2AF0000E146E12EF2AF0F29AD59EC5
:1054240014501200010E146E12501310D8A41DEF64
:105434002AF01FEF2AF023EF2AF0000E146E24EF57
:105444002AF0C28214501200222A121A037A7268B5
:105454005A622A181A622A093028111810010911EF
:055464001961697104EB
:10546A00F40E016E000E026E010E036E89EC1AF044
:10547A000001FD6F1200F40E016E000E026E000EA6
:10548A00036E89EC1AF00001FD6F1200A19200016F
:10549A00A551B36EA4C0B2FF12009E900001AB5199
:1054AA00CF6EAAC0CEFF120093EC29F00BEC26F0C7
:0B54BA001200232B333B0A0202140CEB
:1054C6009E92C8C0CCFF1200F0921200F09012001B
:1054D600F29212009E961200A1961200A19012005E
:0C54E6009E9412009E9C12001200120006
:10FDFA000031323334353637383963303D352D4D9D
:10FE0A006963726F77617665202020362D4578699F
:10FE1A007400332D47617261676520202020342DDC
:10FE2A00526F6F6D7300312D41697220436F6E649A
:10FE3A006974696F6E657200456E746572205061EF
:10FE4A007373776F7264203A00322D44697361626A
:10FE5A006C652052656D6F746500322D52656D6F49
:10FE6A00746520436F6E74726F6C00312D48656142
:10FE7A0074696E672053797374656D00537973746E
:10FE8A00656D205368757420646F776E00322D5447
:10FE9A0075726E206F6666206C6967687400506CB4
:10FEAA0065617365207365742054696D6500312D31
:10FEBA00456E61626C652052656D6F746500322D06
:10FECA00537461727420436F636B696E6700312DDE
:10FEDA005475726E206F6E206C6967687400546581
:10FEEA006D7065726174757265203A20005365748D
:10FEFA002050617373776F7264203A00496E76619D
:10FF0A006C69642043686F69636500332D53746FAD
:10FF1A007020436F636B696E6700312D47617261B0
:10FF2A006765204C6967687400322D4761726167A2
:10FF3A006520446F6F72004E6F204D6F72652054BA
:10FF4A007269657300322D436C6F736520446F6F5D
:10FF5A007200332D4175746F204D6F646500312D29
:10FF6A005365742054696D657200312D4F70656E4A
:10FF7A0020446F6F7200322D5475726E206F666660
:10FF8A000057726F6E6720706173730054726965EF
:10FF9A0073204C65667400312D5475726E206F6E35
:10FFAA0000312D526F6F6D203100322D526F6F6DFF
:10FFBA00203200332D526F6F6D203300342D526F73
:10FFCA006F6D203400322D48656174657200576583
:10FFDA006C636F6D6500312D4261636B00332D4296
:10FFEA0061636B00342D4261636B00352D4261639E
:06FFFA006B002569000008
:020000040030CA
:0E000000FF071F1FFF8185FF0FC00FE00F409D
:00000001FF
