:100000000C942A000C94140B0C94410B0C946E0B62
:100010000C9447000C9447000C9420090C94BA08E7
:100020000C94ED080C9487080C9447000C9447003E
:100030000C9447000C9447000C9447000C94470024
:100040000C9447000C9447000C9447000C94470014
:100050000C94470011241FBECFE5D8E0DEBFCDBF12
:1000600010E0A0E6B0E0E6ECFAE402C005900D92E4
:10007000A83BB107D9F710E0A8EBB0E001C01D9292
:10008000A43DB107E1F70E948C1E0C9461250C94ED
:100090000000EF92FF920F931F937B018C0120E0F1
:1000A00030E040E05FE40E94F50388238CF0C80153
:1000B000B70120E030E040E05FE40E94C1010E940F
:1000C00055049B01AC01205030404040504806C0D0
:1000D000C801B7010E9455049B01AC01B901CA01D6
:1000E0001F910F91FF90EF900895A0E0B0E0EBE733
:1000F000F0E00C948922DC012B01FA019C919230F2
:1001000008F439C1EB018881823008F433C194309E
:1001100069F4843009F02FC111969C91119789815F
:10012000981709F428C1ACE9B0E025C1843009F47E
:1001300021C18230A9F4923009F01DC19A01AD01AC
:1001400088E0EA010990AE01E90109929E0181501F
:10015000C1F7E201898111969C918923818308C1AD
:10016000923009F407C112962D903C901397EB0141
:100170008A819B811496AD90BD90CD90DC901797AD
:10018000EC80FD800E811F819101281B390BB90184
:1001900037FF04C066277727621B730B6032710537
:1001A0000CF061C0121613066CF537014801062EDB
:1001B00004C096948794779467940A94D2F721E0C8
:1001C00030E040E050E004C0220F331F441F551FB1
:1001D0006A95D2F721503040404050402E213F21B7
:1001E00040235123211531054105510521F021E01E
:1001F00030E040E050E079018A01E628F72808293C
:1002000019293CC0232BD1F1260E371E350146019A
:10021000062E04C096948794779467940A94D2F734
:1002200021E030E040E050E004C0220F331F441FC3
:10023000551F6A95D2F721503040404050402A2146
:100240003B214C215D21211531054105510521F04E
:1002500021E030E040E050E059016A01A628B728CB
:10026000C828D9280BC0821593052CF01C01AA249C
:10027000BB24650103C0EE24FF24870111969C91E5
:10028000D20111968C91981709F445C0992339F041
:10029000A80197012A193B094C095D0906C0A6016E
:1002A00095012E193F09400B510B57FD08C01182D3
:1002B0003382228224833583468357831DC081E0A5
:1002C00081833382228288279927DC01821B930B4A
:1002D000A40BB50B84839583A683B7830DC0220F2F
:1002E000331F441F551F24833583468357838281E0
:1002F000938101979383828324813581468157813D
:10030000DA01C9010197A109B1098F5F9F4FAF4F72
:10031000BF4328F30BC0918333822282EA0CFB1C7B
:100320000C1D1D1DE482F5820683178383E0808304
:10033000248135814681578157FF1AC0C901AA27F8
:1003400097FDA095BA2F81709070A070B0705695EF
:10035000479537952795822B932BA42BB52B848318
:100360009583A683B7838281938101969383828349
:10037000DF0101C0D201CD01CDB7DEB7E2E10C94BF
:10038000A522A0E2B0E0E7ECF1E00C9495226983AD
:100390007A838B839C832D833E834F835887E9E048
:1003A000EE2EF12CEC0EFD1ECE010196B7010E943F
:1003B0007E058E010F5E1F4FCE010596B8010E948B
:1003C0007E058A8991E089278A8BC701B801AE0131
:1003D000475E5F4F0E9475000E94A904A096E6E068
:1003E0000C94B122A0E2B0E0E8EFF1E00C94952289
:1003F00069837A838B839C832D833E834F835887C5
:10040000F9E0EF2EF12CEC0EFD1ECE010196B701A6
:100410000E947E058E010F5E1F4FCE010596B8012A
:100420000E947E05C701B801AE01475E5F4F0E9482
:1004300075000E94A904A096E6E00C94B122A0E207
:10044000B0E0E5E2F2E00C94892269837A838B8341
:100450009C832D833E834F835887CE010196BE0136
:10046000675F7F4F0E947E05CE010596BE016F5EDD
:100470007F4F0E947E059985923088F0898982306D
:10048000C8F0943019F4823051F404C0843029F457
:10049000923081F48CE990E0C6C0923049F420E0BB
:1004A0009A858A89981321E02A87CE010996BBC0D4
:1004B000823049F420E09A858A89981321E02A8BBA
:1004C000CE014196B0C02D843E844F8458886D88FB
:1004D0007E888F88988CEE24FF248701AA24BB2471
:1004E000650140E050E060E070E0E0E0F0E0C10174
:1004F00081709070892BE9F0E60CF71C081D191D1E
:100500009A01AB012A0D3B1D4C1D5D1D80E090E062
:10051000A0E0B0E0E614F7040805190520F481E036
:1005200090E0A0E0B0E0BA01A901480F591F6A1F8E
:100530007B1FAA0CBB1CCC1CDD1C97FE08C081E0F5
:1005400090E0A0E0B0E0A82AB92ACA2ADB2A3196B6
:10055000E032F10549F0660C771C881C991C569412
:10056000479437942794C3CFFA85EA892B893C892D
:100570008B859C85280F391F2E5F3F4F17C0CA01FE
:1005800081709070892B61F016950795F794E79428
:1005900080E090E0A0E0B0E8E82AF92A0A2B1B2BC3
:1005A00076956795579547952F5F3F4F77FDE7CF36
:1005B0000CC0440F551F661F771F17FD4160EE0CDE
:1005C000FF1C001F111F21503040403090E05907A0
:1005D00090E0690790E4790760F32B8F3C8FDB0193
:1005E000CA018F779070A070B07080349105A1051A
:1005F000B10561F447FD0AC0E114F10401051105DC
:1006000029F0405C5F4F6F4F7F4F40781A8EFE1786
:1006100011F081E08A8F4D8F5E8F6F8F78A383E01A
:10062000898FCE0149960E94A904A096E2E10C941C
:10063000A522A8E1B0E0EFE1F3E00C9491226983F8
:100640007A838B839C832D833E834F835887B9E0C5
:10065000EB2EF12CEC0EFD1ECE010196B7010E948F
:100660007E058E010F5E1F4FCE010596B8010E94D8
:100670007E052985223008F47EC03989323010F495
:10068000B8017CC08A859A8989278A87243011F02D
:10069000223031F4231709F06EC06CE970E06EC0AF
:1006A000343039F41D861E861F86188A1C861B86E8
:1006B00004C0323021F484E08987B7015FC02B8504
:1006C0003C858B899C89281B390B3C872B87ED84C3
:1006D000FE840F851889AD88BE88CF88D88CEA142F
:1006E000FB040C051D0540F4EE0CFF1C001F111F40
:1006F000215030403C872B8720E030E040E050E044
:1007000080E090E0A0E0B0E460E070E0EA14FB0478
:100710000C051D0540F0282B392B4A2B5B2BEA18C2
:10072000FB080C091D09B695A79597958795EE0CC2
:10073000FF1C001F111F6F5F7F4F6F31710531F775
:10074000DA01C9018F779070A070B0708034910584
:10075000A105B10561F427FD0AC0E114F10401050A
:10076000110529F0205C3F4F4F4F5F4F20782D87B8
:100770003E874F87588BBE01675F7F4FCB010E943A
:10078000A9046896EAE00C94AD22A8E1B0E0EBEC95
:10079000F3E00C94952269837A838B839C832D8369
:1007A0003E834F83588789E0E82EF12CEC0EFD1E26
:1007B000CE010196B7010E947E058E010F5E1F4F8C
:1007C000CE010596B8010E947E058985823040F0F1
:1007D0008989823028F0C701B8010E94F60501C05E
:1007E0008FEF6896E6E00C94B122A8E1B0E0EBEF61
:1007F000F3E00C94952269837A838B839C832D8309
:100800003E834F83588789E0E82EF12CEC0EFD1EC5
:10081000CE010196B7010E947E058E010F5E1F4F2B
:10082000CE010596B8010E947E058985823040F090
:100830008989823028F0C701B8010E94F60501C0FD
:100840008FEF6896E6E00C94B122A8E1B0E0EBE20D
:10085000F4E00C94952269837A838B839C832D83A7
:100860003E834F83588789E0E82EF12CEC0EFD1E65
:10087000CE010196B7010E947E058E010F5E1F4FCB
:10088000CE010596B8010E947E058985823040F030
:100890008989823028F0C701B8010E94F60501C09D
:1008A00081E06896E6E00C94B122ACE0B0E0EBE5C4
:1008B000F4E00C94992269837A838B839C83CE0124
:1008C0000196BE016B5F7F4F0E947E058D81823055
:1008D00061F1823050F1843021F48E81882351F10E
:1008E0002EC02F81388537FD20C06E812F31310514
:1008F0001CF06623F9F023C08EE190E0821B930B7D
:1009000029853A854B855C8504C056954795379572
:1009100027958A95D2F76623B1F05095409530958A
:1009200021953F4F4F4F5F4F0EC020E030E040E039
:1009300050E009C02FEF3FEF4FEF5FE704C020E02A
:1009400030E040E050E8B901CA012C96E2E00C9496
:10095000B522DF92EF92FF920F931F93FC01E48088
:10096000F58006811781D1808081823048F480E053
:1009700090E0A0E1B0E0E82AF92A0A2B1B2BA5C0E1
:10098000843009F49FC0823021F4EE24FF248701D3
:1009900005C0E114F1040105110519F4E0E0F0E0EF
:1009A00096C0628173819FEF623879070CF05BC05B
:1009B00022E83FEF261B370B2A3131052CF020E0CF
:1009C00030E040E050E02AC0B801A701022E04C088
:1009D00076956795579547950A94D2F781E090E010
:1009E000A0E0B0E004C0880F991FAA1FBB1F2A9582
:1009F000D2F70197A109B1098E219F21A023B1232C
:100A00000097A105B10521F081E090E0A0E0B0E001
:100A10009A01AB01282B392B4A2B5B2BDA01C90138
:100A20008F779070A070B07080349105A105B105EA
:100A300039F427FF09C0205C3F4F4F4F5F4F04C080
:100A4000215C3F4F4F4F5F4FE0E0F0E02030A0E0EF
:100A50003A07A0E04A07A0E45A0710F0E1E0F0E00E
:100A600079018A0127C06038710564F5FB01E158FE
:100A7000FF4FD801C7018F779070A070B07080349D
:100A80009105A105B10539F4E7FE0DC080E490E0C1
:100A9000A0E0B0E004C08FE390E0A0E0B0E0E80E9A
:100AA000F91E0A1F1B1F17FF05C016950795F7941F
:100AB000E794319687E016950795F794E7948A9521
:100AC000D1F705C0EE24FF248701EFEFF0E06E2F91
:100AD000679566276795902F9F77D794DD24D794E5
:100AE0008E2F8695492F462B582F5D29B701CA01B5
:100AF0001F910F91FF90EF90DF900895FC01DB01B3
:100B0000408151812281622F6F7770E0221F22275E
:100B1000221F9381892F880F822B282F30E0991F65
:100B20009927991F11969C93119721153105A9F5C5
:100B3000411551056105710511F482E037C082E865
:100B40009FEF13969C938E9312979A01AB0167E0E7
:100B5000220F331F441F551F6A95D1F783E08C93F2
:100B60000DC0220F331F441F551F12968D919C916B
:100B70001397019713969C938E931297203080E0E1
:100B8000380780E0480780E4580758F314962D93FF
:100B90003D934D935C93179708952F3F310579F45A
:100BA000411551056105710519F484E08C93089590
:100BB00064FF03C081E08C9312C01C9210C02F57B9
:100BC000304013963C932E93129783E08C9387E0EA
:100BD000440F551F661F771F8A95D1F770641496CE
:100BE0004D935D936D937C93179708951F93DC014C
:100BF000FB019C91923008F447C08081823008F458
:100C000043C0943051F411961C91843099F5818140
:100C1000682F70E0611B71093FC0843021F0923071
:100C200031F48230B9F18181882389F12DC0119688
:100C30001C9111978230F1F081811817D9F4129626
:100C40002D913C911397828193818217930794F0A1
:100C500028173907BCF014968D919D910D90BC9189
:100C6000A02D2481358146815781281739074A07ED
:100C70005B0718F4112341F00AC082179307A407F9
:100C8000B50740F4112319F061E070E005C06FEF83
:100C90007FEF02C060E070E0CB011F910895DF9309
:100CA000CF9300D000D000D0CDB7DEB789836A8360
:100CB0004B832C838981282F30E03E832D838D81C7
:100CC0009E818B30910509F456C02D813E812C30D8
:100CD000310554F48D819E81009799F02D813E81DC
:100CE0002430310559F19DC08D819E818E30910552
:100CF00009F45EC02D813E812F30310509F475C0A5
:100D000090C0AFE4B0E0EFE4F0E080818E7F8C93A0
:100D1000AFE4B0E0EFE4F0E080818D7F8C93AEE44F
:100D2000B0E0EEE4F0E08081877F8C93AEE4B0E049
:100D3000EEE4F0E080818F7E8C9373C0AFE4B0E08E
:100D4000EFE4F0E080818E7F8C93AFE4B0E0EFE4DD
:100D5000F0E080818D7F8C93AEE4B0E0EEE4F0E0D3
:100D6000808188608C93AEE4B0E0EEE4F0E08081B6
:100D70008F7E8C9356C0AFE4B0E0EFE4F0E080816A
:100D800081608C93AFE4B0E0EFE4F0E080818260BA
:100D90008C93AEE4B0E0EEE4F0E08081877F8C934A
:100DA000AEE4B0E0EEE4F0E0808180618C9339C085
:100DB000AFE4B0E0EFE4F0E080818E7F8C93AFE4AD
:100DC000B0E0EFE4F0E0808182608C93AEE4B0E0CC
:100DD000EEE4F0E0808188608C93AEE4B0E0EEE475
:100DE000F0E0808180618C931CC0AFE4B0E0EFE460
:100DF000F0E0808181608C93AFE4B0E0EFE4F0E05C
:100E0000808182608C93AEE4B0E0EEE4F0E080811B
:100E100088608C93AEE4B0E0EEE4F0E08081806125
:100E20008C93AFE4B0E0EFE4F0E080818F738C93BB
:100E3000AFE4B0E0EFE4F0E08081806C8C93AFE44D
:100E4000B0E0EFE4F0E080818F7C8C93AFE4B0E021
:100E5000EFE4F0E090818C81892B8C93AEE4B0E0DC
:100E6000EEE4F0E080818F7C8C93AEE4B0E0EEE4C1
:100E7000F0E090818A81892B8C9326960FB6F894A6
:100E8000DEBF0FBECDBFCF91DF910895DF93CF932B
:100E900000D0CDB7DEB79A838983ECE4F0E0898196
:100EA0009A81918380830F900F90CF91DF91089565
:100EB000DF93CF93CDB7DEB7ECE4F0E08081918192
:100EC000CF91DF910895DF93CF9300D0CDB7DEB7F8
:100ED0009A838983EAE4F0E089819A81918380830F
:100EE0000F900F90CF91DF910895DF93CF9300D0B3
:100EF000CDB7DEB79A838983E8E4F0E089819A81EF
:100F0000918380830F900F90CF91DF910895DF93AD
:100F1000CF93CDB7DEB7A9E5B0E0E9E5F0E0808199
:100F200084608C93CF91DF910895DF93CF93CDB7F9
:100F3000DEB7A9E5B0E0E9E5F0E080818B7F8C9336
:100F4000CF91DF910895DF93CF93CDB7DEB7A9E5B9
:100F5000B0E0E9E5F0E0808180618C93CF91DF9192
:100F60000895DF93CF93CDB7DEB7A9E5B0E0E9E50B
:100F7000F0E080818F7E8C93CF91DF910895DF9395
:100F8000CF93CDB7DEB7A9E5B0E0E9E5F0E0808129
:100F900088608C93CF91DF910895DF93CF93CDB785
:100FA000DEB7A9E5B0E0E9E5F0E08081877F8C93CA
:100FB000CF91DF910895DF93CF9300D0CDB7DEB707
:100FC0009A83898389819A819093B9008093B8002C
:100FD0000F900F90CF91DF910895DF93CF9300D0C2
:100FE000CDB7DEB79A83898389819A819093BB00BC
:100FF0008093BA000F900F90CF91DF910895DF9307
:10100000CF9300D0CDB7DEB79A83898389819A8147
:101010009093BD008093BC000F900F90CF91DF9113
:101020000895DF93CF9300D0CDB7DEB79A8389833D
:1010300089819A819093BF008093BE000F900F909A
:10104000CF91DF910895DF93CF9300D00F92CDB76A
:10105000DEB789838981282F30E03B832A838A8108
:101060009B81009731F02A813B812130310549F085
:101070000FC0AEE4B0E0EEE4F0E080818F7B8C93B3
:1010800007C0AEE4B0E0EEE4F0E0808180648C93D1
:101090000F900F900F90CF91DF910895DF93CF9332
:1010A00000D0CDB7DEB79A838983E6E4F0E089818A
:1010B0009A81918380830F900F90CF91DF91089553
:1010C000DF93CF93CDB7DEB7E6E4F0E08081918186
:1010D000CF91DF910895DF93CF93CDB7DEB7A9E528
:1010E000B0E0E9E5F0E0808180628C93CF91DF9100
:1010F0000895DF93CF93CDB7DEB7A9E5B0E0E9E57A
:10110000F0E080818F7D8C93CF91DF9108951F92C5
:101110000F920FB60F9211242F933F934F935F932B
:101120006F937F938F939F93AF93BF93EF93FF93AF
:10113000DF93CF93CDB7DEB78091B8009091B9001F
:10114000009729F0E091B800F091B9000995CF918E
:10115000DF91FF91EF91BF91AF919F918F917F911F
:101160006F915F914F913F912F910F900FBE0F9014
:101170001F9018951F920F920FB60F9211242F9364
:101180003F934F935F936F937F938F939F93AF930F
:10119000BF93EF93FF93DF93CF93CDB7DEB78091EB
:1011A000BA009091BB00009729F0E091BA00F0914D
:1011B000BB000995CF91DF91FF91EF91BF91AF9166
:1011C0009F918F917F916F915F914F913F912F915F
:1011D0000F900FBE0F901F9018951F920F920FB691
:1011E0000F9211242F933F934F935F936F937F93AD
:1011F0008F939F93AF93BF93EF93FF93DF93CF931F
:10120000CDB7DEB78091BC009091BD00009729F06A
:10121000E091BC00F091BD000995CF91DF91FF9165
:10122000EF91BF91AF919F918F917F916F915F915E
:101230004F913F912F910F900FBE0F901F901895D7
:101240001F920F920FB60F9211242F933F934F933B
:101250005F936F937F938F939F93AF93BF93EF931E
:10126000FF93DF93CF93CDB7DEB78091BE0090910F
:10127000BF00009729F0E091BE00F091BF000995F2
:10128000CF91DF91FF91EF91BF91AF919F918F919E
:101290007F916F915F914F913F912F910F900FBE72
:1012A0000F901F901895DF93CF93CDB7DEB781E0F5
:1012B00066E041E00E94B50CADE2B0E0EDE2F0E0A6
:1012C00080818F7E8C93ADE2B0E0EDE2F0E0808132
:1012D0008F7D8C93ADE2B0E0EDE2F0E08081877F1E
:1012E0008C93ADE2B0E0EDE2F0E0808184608C931D
:1012F000ADE2B0E0EDE2F0E0808181608C93ADE2A0
:10130000B0E0EDE2F0E0808182608C93AEE2B0E08C
:10131000EEE2F0E080818E7F8C93ADE2B0E0EDE212
:10132000F0E0808180648C93CF91DF910895DF930A
:10133000CF930F92CDB7DEB78983EFE2F0E08981DA
:101340008083EEE2F0E080818823DCF7EFE2F0E0DA
:1013500080810F90CF91DF910895DF93CF93CDB728
:10136000DEB72A970FB6F894DEBF0FBECDBF8983D4
:101370006A838981282F30E03A87298789859A8571
:101380008130910509F46DC029853A8522303105F7
:1013900009F4C9C089859A85009709F0EAC08A8155
:1013A000282F30E038872F838F81988581309105F1
:1013B00099F12F813885223031052CF48F81988561
:1013C0000097C9F146C02F8138852230310531F0B0
:1013D0008F8198858330910581F03BC0A5E5B0E011
:1013E000E5E5F0E080818E7F8C93A5E5B0E0E5E552
:1013F000F0E0808182608C932CC0A5E5B0E0E5E54B
:10140000F0E0808181608C93A5E5B0E0E5E5F0E057
:10141000808182608C931DC0A5E5B0E0E5E5F0E039
:10142000808181608C93A5E5B0E0E5E5F0E0808106
:101430008D7F8C930EC0A5E5B0E0E5E5F0E08081FE
:101440008E7F8C93A5E5B0E0E5E5F0E080818D7FAF
:101450008C93ABE5B0E0EBE5F0E0808180648C93A9
:1014600088C08A81282F30E03E832D838D819E8124
:101470008130910599F12D813E81223031052CF486
:101480008D819E810097C9F146C02D813E81223019
:10149000310531F08D819E818330910581F03BC013
:1014A000A5E5B0E0E5E5F0E080818B7F8C93A5E5D4
:1014B000B0E0E5E5F0E0808188608C932CC0A5E584
:1014C000B0E0E5E5F0E0808184608C93A5E5B0E0D4
:1014D000E5E5F0E0808188608C931DC0A5E5B0E073
:1014E000E5E5F0E0808184608C93A5E5B0E0E5E57A
:1014F000F0E08081877F8C930EC0A5E5B0E0E5E544
:10150000F0E080818B7F8C93A5E5B0E0E5E5F0E02D
:101510008081877F8C93ABE5B0E0EBE5F0E08081E4
:1015200080688C9326C08A81282F30E03C832B83EF
:101530008B819C818230910531F02B813C8123305D
:10154000310549F00FC0A4E5B0E0E4E5F0E08081AA
:101550008F7B8C9307C0A4E5B0E0E4E5F0E08081E8
:1015600080648C93ABE5B0E0EBE5F0E080818062D5
:101570008C932A960FB6F894DEBF0FBECDBFCF91E5
:10158000DF910895DF93CF9300D00F92CDB7DEB7F0
:1015900089838981282F30E03B832A838A819B813C
:1015A0008130910589F02A813B8122303105A1F0FB
:1015B0008A819B810097B9F4ABE5B0E0EBE5F0E000
:1015C00080818F7B8C930FC0ABE5B0E0EBE5F0E062
:1015D00080818F778C9307C0ABE5B0E0EBE5F0E05E
:1015E00080818F7D8C930F900F900F90CF91DF9122
:1015F0000895DF93CF9300D00F92CDB7DEB78983E4
:101600007B836A838981882F90E0880F991FFC0172
:10161000E054FF4F8A819B81918380830F900F90CC
:101620000F90CF91DF9108951F920F920FB60F92F6
:1016300011242F933F934F935F936F937F938F93D7
:101640009F93AF93BF93EF93FF93DF93CF93CDB768
:10165000DEB7E091C000F091C1000995CF91DF9114
:10166000FF91EF91BF91AF919F918F917F916F917A
:101670005F914F913F912F910F900FBE0F901F9050
:1016800018951F920F920FB60F9211242F933F932C
:101690004F935F936F937F938F939F93AF93BF937A
:1016A000EF93FF93DF93CF93CDB7DEB7E091C20006
:1016B000F091C3000995CF91DF91FF91EF91BF9118
:1016C000AF919F918F917F916F915F914F913F91DA
:1016D0002F910F900FBE0F901F9018951F920F9291
:1016E0000FB60F9211242F933F934F935F936F93F5
:1016F0007F938F939F93AF93BF93EF93FF93DF936A
:10170000CF93CDB7DEB7E091C400F091C500099545
:10171000CF91DF91FF91EF91BF91AF919F918F9109
:101720007F916F915F914F913F912F910F900FBEDD
:101730000F901F901895DF93CF93CDB7DEB7A1E23E
:10174000B0E0E1E2F0E080818E7F8C93A1E2B0E036
:10175000E1E2F0E080818D7F8C93E0E2F0E08CE0CC
:101760008083A6E5B0E0E6E5F0E0808180648C93BC
:10177000A6E5B0E0E6E5F0E0808184608C93CF914F
:10178000DF910895DF93CF930F92CDB7DEB78983B2
:10179000E2E2F0E08981880F8083A6E5B0E0E6E52B
:1017A000F0E0808180648C93A6E5B0E0E6E5F0E0AF
:1017B000808184608C930F90CF91DF910895DF93A7
:1017C000CF93CDB7DEB7A6E5B0E0E6E5F0E08081E7
:1017D00080628C93A6E5B0E0E6E5F0E08081806869
:1017E0008C93E6E5F0E080818823DCF7CF91DF91F0
:1017F0000895DF93CF93CDB7DEB7A6E5B0E0E6E579
:10180000F0E0808180618C93A6E5B0E0E6E5F0E051
:10181000808180688C93CF91DF910895DF93CF937F
:101820000F92CDB7DEB78983E3E2F0E08981880FBC
:101830008083A3E2B0E0E3E2F0E080818E7F8C93CE
:10184000A6E5B0E0E6E5F0E080818F7D8C93A6E52B
:10185000B0E0E6E5F0E0808180688C93E6E5F0E0BA
:1018600080818823DCF70F90CF91DF910895DF937B
:10187000CF930F92CDB7DEB78983E3E2F0E08981A1
:10188000880F8083A3E2B0E0E3E2F0E08081816032
:101890008C93A6E5B0E0E6E5F0E080818F7D8C9347
:1018A000A6E5B0E0E6E5F0E0808180688C93E6E5AF
:1018B000F0E080818823DCF70F90CF91DF910895CD
:1018C000DF93CF930F92CDB7DEB78983E3E2F0E0E9
:1018D00089818083A6E5B0E0E6E5F0E0808180685C
:1018E0008C93E6E5F0E080818823DCF70F90CF91C0
:1018F000DF910895DF93CF93CDB7DEB7A6E5B0E0D3
:10190000E6E5F0E0808180688C93E6E5F0E0808198
:101910008823DCF7E3E2F0E08081CF91DF91089546
:10192000DF93CF93CDB7DEB7E1E2F0E08081882F7F
:1019300090E0887F907080369105B1F7A6E5B0E021
:10194000E6E5F0E0808180688C93E1E2F0E0808160
:10195000882F90E0887F907080389105B1F7E3E29E
:10196000F0E08081CF91DF910895DF93CF93CDB7E1
:10197000DEB727970FB6F894DEBF0FBECDBF8983C1
:101980006A834B838B81813009F06FC08981282F56
:1019900030E03F832E838E819F818130910549F114
:1019A0002E813F81223031052CF48E819F8100975A
:1019B00061F0D2C02E813F812230310571F18E81DC
:1019C0009F8183309105E9F1C7C0AAE3B0E0EAE363
:1019D000F0E08081482F8A81282F30E081E090E07C
:1019E000022E02C0880F991F0A94E2F7842B8C9371
:1019F000B3C0A7E3B0E0E7E3F0E08081482F8A813D
:101A0000282F30E081E090E0022E02C0880F991F5D
:101A10000A94E2F7842B8C939FC0A4E3B0E0E4E344
:101A2000F0E08081482F8A81282F30E081E090E02B
:101A3000022E02C0880F991F0A94E2F7842B8C9320
:101A40008BC0A1E3B0E0E1E3F0E08081482F8A8120
:101A5000282F30E081E090E0022E02C0880F991F0D
:101A60000A94E2F7842B8C9377C08B81882309F04A
:101A700073C08981282F30E03D832C838C819D8128
:101A80008130910559F12C813D81223031052CF4B2
:101A90008C819D81009769F05FC02C813D8122304F
:101AA000310589F18C819D818330910509F440C015
:101AB00053C0AAE3B0E0EAE3F0E08081482F8A81D6
:101AC000282F30E081E090E0022E02C0880F991F9D
:101AD0000A94E2F7809584238C933EC0A7E3B0E09C
:101AE000E7E3F0E08081482F8A81282F30E081E011
:101AF00090E0022E02C0880F991F0A94E2F78095A9
:101B000084238C9329C0A4E3B0E0E4E3F0E0808177
:101B1000482F8A81282F30E081E090E0022E02C019
:101B2000880F991F0A94E2F7809584238C9314C040
:101B3000A1E3B0E0E1E3F0E08081482F8A81282F23
:101B400030E081E090E0022E02C0880F991F0A94D5
:101B5000E2F7809584238C9327960FB6F894DEBF26
:101B60000FBECDBFCF91DF910895DF93CF93CDB757
:101B7000DEB727970FB6F894DEBF0FBECDBF8983BF
:101B80006A834B838B81813009F06FC08981282F54
:101B900030E03F832E838E819F818130910549F112
:101BA0002E813F81223031052CF48E819F81009758
:101BB00061F0D2C02E813F812230310571F18E81DA
:101BC0009F8183309105E9F1C7C0ABE3B0E0EBE35F
:101BD000F0E08081482F8A81282F30E081E090E07A
:101BE000022E02C0880F991F0A94E2F7842B8C936F
:101BF000B3C0A8E3B0E0E8E3F0E08081482F8A8139
:101C0000282F30E081E090E0022E02C0880F991F5B
:101C10000A94E2F7842B8C939FC0A5E3B0E0E5E340
:101C2000F0E08081482F8A81282F30E081E090E029
:101C3000022E02C0880F991F0A94E2F7842B8C931E
:101C40008BC0A2E3B0E0E2E3F0E08081482F8A811C
:101C5000282F30E081E090E0022E02C0880F991F0B
:101C60000A94E2F7842B8C9377C08B81882309F048
:101C700073C08981282F30E03D832C838C819D8126
:101C80008130910559F12C813D81223031052CF4B0
:101C90008C819D81009769F05FC02C813D8122304D
:101CA000310589F18C819D818330910509F440C013
:101CB00053C0ABE3B0E0EBE3F0E08081482F8A81D2
:101CC000282F30E081E090E0022E02C0880F991F9B
:101CD0000A94E2F7809584238C933EC0A8E3B0E099
:101CE000E8E3F0E08081482F8A81282F30E081E00E
:101CF00090E0022E02C0880F991F0A94E2F78095A7
:101D000084238C9329C0A5E3B0E0E5E3F0E0808173
:101D1000482F8A81282F30E081E090E0022E02C017
:101D2000880F991F0A94E2F7809584238C9314C03E
:101D3000A2E3B0E0E2E3F0E08081482F8A81282F1F
:101D400030E081E090E0022E02C0880F991F0A94D3
:101D5000E2F7809584238C9327960FB6F894DEBF24
:101D60000FBECDBFCF91DF910895DF93CF9300D009
:101D700000D00F92CDB7DEB78A836B8319828A8138
:101D8000282F30E03D832C834C815D81413051050B
:101D900041F18C819D818230910534F42C813D810B
:101DA0002115310561F052C04C815D8142305105F1
:101DB00051F18C819D8183309105B9F147C0E9E3F0
:101DC000F0E08081282F30E08B81882F90E0A901FE
:101DD00002C0559547958A95E2F7CA0181708983BB
:101DE00035C0E6E3F0E08081282F30E08B81882F3A
:101DF00090E0A90102C0559547958A95E2F7CA017E
:101E00008170898323C0E3E3F0E08081282F30E0F4
:101E10008B81882F90E0A90102C0559547958A953E
:101E2000E2F7CA018170898311C0E0E3F0E08081AC
:101E3000282F30E08B81882F90E0A90102C05595B2
:101E400047958A95E2F7CA018170898389810F904D
:101E50000F900F900F900F90CF91DF910895DF9327
:101E6000CF9300D000D0CDB7DEB789836A83898154
:101E7000282F30E03C832B838B819C81813091051E
:101E800049F12B813C81223031052CF48B819C81DE
:101E9000009761F05AC02B813C812230310571F1ED
:101EA0008B819C8183309105E9F14FC0ABE3B0E0B9
:101EB000EBE3F0E08081482F8A81282F30E081E039
:101EC00090E0022E02C0880F991F0A94E2F784273F
:101ED0008C933BC0A8E3B0E0E8E3F0E08081482FBA
:101EE0008A81282F30E081E090E0022E02C0880F26
:101EF000991F0A94E2F784278C9327C0A5E3B0E0EA
:101F0000E5E3F0E08081482F8A81282F30E081E0EE
:101F100090E0022E02C0880F991F0A94E2F78427EE
:101F20008C9313C0A2E3B0E0E2E3F0E08081482F9D
:101F30008A81282F30E081E090E0022E02C0880FD5
:101F4000991F0A94E2F784278C930F900F900F90BB
:101F50000F90CF91DF910895DF93CF9300D000D001
:101F6000CDB7DEB789836A838981282F30E03C832F
:101F70002B838B819C8181309105D1F02B813C8119
:101F8000223031052CF48B819C81009761F01EC0BA
:101F90002B813C812230310581F08B819C81833003
:101FA000910581F013C0EAE3F0E08A8180830EC0DE
:101FB000E7E3F0E08A81808309C0E4E3F0E08A810E
:101FC000808304C0E1E3F0E08A8180830F900F906A
:101FD0000F900F90CF91DF910895DF93CF9300D0B2
:101FE00000D0CDB7DEB789836A838981282F30E09E
:101FF0003C832B838B819C8181309105D1F02B8197
:102000003C81223031052CF48B819C81009761F05A
:102010001EC02B813C812230310581F08B819C8157
:102020008330910581F013C0EBE3F0E08A81808377
:102030000EC0E8E3F0E08A81808309C0E5E3F0E0C8
:102040008A81808304C0E2E3F0E08A8180830F907C
:102050000F900F900F90CF91DF910895DF93CF9362
:1020600000D000D0CDB7DEB78A8319828A81282FAD
:1020700030E03C832B838B819C8181309105D1F0B2
:102080002B813C81223031052CF48B819C8100977F
:1020900061F01EC02B813C812230310581F08B81A3
:1020A0009C818330910581F013C0E9E3F0E08081E9
:1020B00089830EC0E6E3F0E08081898309C0E3E311
:1020C000F0E08081898304C0E0E3F0E080818983CF
:1020D00089810F900F900F900F90CF91DF9108950D
:1020E000DF93CF93CDB7DEB7A6E2B0E0E6E2F0E053
:1020F000808180688C93A7E2B0E0E7E2F0E0808125
:1021000080648C93A7E2B0E0E7E2F0E080818F7713
:102110008C93A7E2B0E0E7E2F0E080818F7D8C93C2
:10212000A6E2B0E0E6E2F0E080818F7D8C93A6E24B
:10213000B0E0E6E2F0E0808184608C93A6E2B0E05B
:10214000E6E2F0E0808182608C93A6E2B0E0E6E215
:10215000F0E080818E7F8C93CF91DF910895DF93A3
:10216000CF930F92CDB7DEB78983A7E2B0E0E7E265
:10217000F0E08081807E8C93A7E2B0E0E7E2F0E0BF
:1021800090818981892B8C93A6E2B0E0E6E2F0E0B1
:10219000808180648C93E6E2F0E0808182958F708C
:1021A000882F90E0817090700097A9F3A6E2B0E0CC
:1021B000E6E2F0E0808180618C93E4E2F0E08081EF
:1021C00091810F90CF91DF910895DF93CF93CDB799
:1021D000DEB78091CC00882369F40E946008909358
:1021E000CB008093CA0080E00E94230881E08093A6
:1021F000CC001FC08091CC008130D9F40E946008CF
:102200009093C9008093C80081E00E942308109237
:10221000CC002091C8003091C9008091CA009091F3
:10222000CB00A901481B590BCA019093C7008093AA
:10223000C600CF91DF910895DF93CF93CDB7DEB77E
:1022400083E066E040E00E94B50C83E061E041E09D
:102250000E94B50C85EE90E10E94110881E00E9479
:1022600023080E946B08CF91DF910895DF93CF93ED
:10227000CDB7DEB7A9970FB6F894DEBF0FBECDBFBE
:1022800089A718A61FA283E061E041E00E94B50D76
:1022900080E090E0A0E2B1E48BA39CA3ADA3BEA339
:1022A0006BA17CA18DA19EA12BEA3AEA4AE250E4FF
:1022B0000E941F02DC01CB018F8F98A3A9A3BAA3B0
:1022C0006F8D78A189A19AA120E030E040E85FE31A
:1022D0000E94250488231CF481E08E8F91C06F8DAD
:1022E00078A189A19AA120E030E04FE753E40E9451
:1022F000C50318160CF07BC06BA17CA18DA19EA11B
:1023000020E030E04AE754E40E941903DC01CB01ED
:102310008A8F9B8FAC8FBD8F6A8D7B8D8C8D9D8DB1
:1023200020E030E04AEF54E40E941F02DC01CB01C0
:102330008E8B9F8BA88FB98F6E897F89888D998DA1
:1023400020E030E040E85FE30E94250488232CF47D
:1023500081E090E09D8B8C8B3FC06E897F89888D5A
:10236000998D20E03FEF4FE757E40E94C503181610
:102370004CF56A8D7B8D8C8D9D8D20E030E040E2A8
:1023800051E40E941F02DC01CB01BC01CD010E947F
:102390004900DC01CB019D8B8C8B0FC088EC90E059
:1023A0009B8B8A8B8A899B890197F1F79B8B8A8B00
:1023B0008C899D8901979D8B8C8B8C899D89009739
:1023C00069F724C06E897F89888D998D0E944900A4
:1023D000DC01CB019D8B8C8B8C899D89998B888BA3
:1023E000888999890197F1F7998B888B0FC06F8D38
:1023F00078A189A19AA10E944900DC01CB018E8FAE
:102400008E8D8F878F858A95F1F78F8783E061E0C6
:1024100040E00E94B50D80E090E0A0EAB0E48B8738
:102420009C87AD87BE876B857C858D859E8520E0EA
:1024300030E04AEF54E40E941F02DC01CB018F839D
:102440009887A987BA876F81788589859A8520E0E2
:1024500030E040E85FE30E94250488232CF481E00B
:1024600090E09E838D833FC06F81788589859A85B2
:1024700020E03FEF4FE757E40E94C50318164CF5E4
:102480006B857C858D859E8520E030E040E251E4BF
:102490000E941F02DC01CB01BC01CD010E9449005A
:1024A000DC01CB019E838D830FC088EC90E09C8380
:1024B0008B838B819C810197F1F79C838B838D812A
:1024C0009E8101979E838D838D819E81009769F700
:1024D00014C06F81788589859A850E944900DC0146
:1024E000CB019E838D838D819E819A83898389818F
:1024F0009A810197F1F79A83898389A5282F30E083
:102500008091C6009091C700AC01249FC001259F17
:10251000900D349F900D1124CC01A0E0B0E028E292
:1025200037E840E050E0BC01CD010E944822DC01C8
:10253000CB0120E034E244EF50E0BC01CD010E9429
:102540006722DA01C90198A78FA38FA198A5A99640
:102550000FB6F894DEBF0FBECDBFCF91DF910895C7
:10256000DF93CF930F92CDB7DEB7898380E060E031
:1025700040E00E94B50D80E061E040E00E94B50DB2
:1025800082E069810E94ED0F0E94721B0F90CF9133
:10259000DF910895DF93CF930F92CDB7DEB7898394
:1025A00080E060E041E00E94B50D80E061E040E045
:1025B0000E94B50D82E069810E94ED0F0E94721B9E
:1025C0000F90CF91DF910895DF93CF9300D00F92BA
:1025D000CDB7DEB789836A834B838A816B810E9482
:1025E000011C89810E94CA120F900F900F90CF9109
:1025F000DF9108950F931F93DF93CF93CDB7DEB78D
:10260000CC54D0400FB6F894DEBF0FBECDBF82E0F1
:102610006FEF0E94AC0F80E060E041E00E94B50CDB
:1026200080E061E041E00E94B50C80E062E041E0C2
:102630000E94B50CFE01E75BFF4F80E090E0ACE04C
:10264000B2E480839183A283B3838E010B5B1F4F1F
:10265000FE01E75BFF4F608171818281938120E001
:1026600030E04AEF54E40E941F02DC01CB01F80184
:1026700080839183A283B383FE01EB5BFF4F608174
:1026800071818281938120E030E040E85FE30E9425
:102690002504882344F4FE01ED5BFF4F81E090E0C8
:1026A0009183808364C0FE01EB5BFF4F6081718189
:1026B0008281938120E03FEF4FE757E40E94C503FA
:1026C00018160CF043C0FE01E75BFF4F608171817B
:1026D0008281938120E030E040E251E40E941F02B9
:1026E000DC01CB018E010D5B1F4FBC01CD010E94AF
:1026F0004900DC01CB01F801918380831FC0FE01FA
:10270000EF5BFF4F88EC90E091838083FE01EF5BED
:10271000FF4F808191810197F1F7FE01EF5BFF4F41
:1027200091838083DE01AD5BBF4FFE01ED5BFF4F08
:1027300080819181019711969C938E93FE01ED5BB0
:10274000FF4F808191810097D1F624C08E010D5BEF
:102750001F4FFE01EB5BFF4F60817181828193818E
:102760000E944900DC01CB01F80191838083FE01C6
:10277000ED5BFF4F80819181FE01FF969183808305
:10278000FE01FF96808191810197F1F7FE01FF968E
:102790009183808388E30E94B01280E090E0A8E4F7
:1027A000B2E48BAF9CAFADAFBEAF6BAD7CAD8DADCA
:1027B0009EAD2BEA3AEA4AE250E40E941F02DC0195
:1027C000CB018FAB98AFA9AFBAAF6FA978AD89AD88
:1027D0009AAD20E030E040E85FE30E9425048823C2
:1027E0001CF481E08EAB91C06FA978AD89AD9AAD34
:1027F00020E030E04FE753E40E94C50318160CF0C8
:102800007BC06BAD7CAD8DAD9EAD20E030E04AE786
:1028100054E40E941903DC01CB018AAB9BABACAB47
:10282000BDAB6AA97BA98CA99DA920E030E04AEF45
:1028300054E40E941F02DC01CB018EA79FA7A8AB26
:10284000B9AB6EA57FA588A999A920E030E040E842
:102850005FE30E94250488232CF481E090E09DA78B
:102860008CA73FC06EA57FA588A999A920E03FEF5E
:102870004FE757E40E94C50318164CF56AA97BA9D7
:102880008CA99DA920E030E040E251E40E941F02A3
:10289000DC01CB01BC01CD010E944900DC01CB0170
:1028A0009DA78CA70FC088EC90E09BA78AA78AA55C
:1028B0009BA50197F1F79BA78AA78CA59DA50197DA
:1028C0009DA78CA78CA59DA5009769F724C06EA530
:1028D0007FA588A999A90E944900DC01CB019DA789
:1028E0008CA78CA59DA599A788A788A599A50197D0
:1028F000F1F799A788A70FC06FA978AD89AD9AADF8
:102900000E944900DC01CB018EAB8EA98FA38FA161
:102910008A95F1F78FA38CE00E94B01280E090E0DE
:10292000A8E4B2E48BA39CA3ADA3BEA36BA17CA13E
:102930008DA19EA12BEA3AEA4AE250E40E941F02CE
:10294000DC01CB018F8F98A3A9A3BAA36F8D78A1C7
:1029500089A19AA120E030E040E85FE30E942504CD
:1029600088231CF481E08E8F91C06F8D78A189A19E
:102970009AA120E030E04FE753E40E94C503181607
:102980000CF07BC06BA17CA18DA19EA120E030E06A
:102990004AE754E40E941903DC01CB018A8F9B8F24
:1029A000AC8FBD8F6A8D7B8D8C8D9D8D20E030E04E
:1029B0004AEF54E40E941F02DC01CB018E8B9F8BF7
:1029C000A88FB98F6E897F89888D998D20E030E03E
:1029D00040E85FE30E94250488232CF481E090E026
:1029E0009D8B8C8B3FC06E897F89888D998D20E06F
:1029F0003FEF4FE757E40E94C50318164CF56A8D68
:102A00007B8D8C8D9D8D20E030E040E251E40E9472
:102A10001F02DC01CB01BC01CD010E944900DC0199
:102A2000CB019D8B8C8B0FC088EC90E09B8B8A8BAD
:102A30008A899B890197F1F79B8B8A8B8C899D8969
:102A400001979D8B8C8B8C899D89009769F724C099
:102A50006E897F89888D998D0E944900DC01CB01A8
:102A60009D8B8C8B8C899D89998B888B8889998982
:102A70000197F1F7998B888B0FC06F8D78A189A191
:102A80009AA10E944900DC01CB018E8F8E8D8F8729
:102A90008F858A95F1F78F8781E00E94B01280E0E0
:102AA00090E0A0EAB0E48B879C87AD87BE876B85FA
:102AB0007C858D859E8520E030E04AEF54E40E94BD
:102AC0001F02DC01CB018F839887A987BA876F81AA
:102AD000788589859A8520E030E040E85FE30E94B0
:102AE000250488232CF481E090E09E838D833FC0F1
:102AF0006F81788589859A8520E03FEF4FE757E41D
:102B00000E94C50318164CF56B857C858D859E85C6
:102B100020E030E040E251E40E941F02DC01CB01E2
:102B2000BC01CD010E944900DC01CB019E838D8355
:102B30000FC088EC90E09C838B838B819C810197F4
:102B4000F1F79C838B838D819E8101979E838D837A
:102B50008D819E81009769F714C06F817885898582
:102B60009A850E944900DC01CB019E838D838D8173
:102B70009E819A83898389819A810197F1F79A834B
:102B80008983C45BDF4F0FB6F894DEBF0FBECDBFA5
:102B9000CF91DF911F910F910895DF93CF9300D0D4
:102BA0000F92CDB7DEB79B838A8319820EC08981CD
:102BB000282F30E08A819B81FC01E20FF31F808186
:102BC0000E94CA1289818F5F89838981282F30E012
:102BD0008A819B81FC01E20FF31F8081882339F7F2
:102BE0000F900F900F90CF91DF910895DF93CF93C7
:102BF00000D000D00F92CDB7DEB79B838A836C8361
:102C00004D838C816D810E94011C19820EC08981C7
:102C1000282F30E08A819B81FC01E20FF31F808125
:102C20000E94CA1289818F5F89838981282F30E0B1
:102C30008A819B81FC01E20FF31F8081882339F791
:102C40000F900F900F900F900F90CF91DF910895FC
:102C5000DF93CF93CDB7DEB72F970FB6F894DEBFD3
:102C60000FBECDBF9D878C876E874F878BE0FE019F
:102C70003196DF01982F1D929A95E9F700D000D088
:102C800000D0EDB7FEB73196CE01019691838083D7
:102C900080E690E0938382838C859D8595838483F1
:102CA0000E94C022ADB7BEB716960FB6F894BEBF4D
:102CB0000FBEADBFCE0101966E854F850E94F61501
:102CC0002F960FB6F894DEBF0FBECDBFCF91DF9128
:102CD0000895DF93CF93CDB7DEB76E970FB6F89414
:102CE000DEBF0FBECDBF9B8F8A8F6C8F4D8F2E8F17
:102CF0008C8D882F90E00896880F991F880F991F58
:102D0000880F991F0E94B01280E090E0A8E4B2E41E
:102D10008D8B9E8BAF8BB88F6D897E898F89988DB7
:102D20002BEA3AEA4AE250E40E941F02DC01CB019E
:102D3000898B9A8BAB8BBC8B69897A898B899C89AF
:102D400020E030E040E85FE30E94250488231CF483
:102D500081E0888B91C069897A898B899C8920E080
:102D600030E04FE753E40E94C50318160CF07BC017
:102D70006D897E898F89988D20E030E04AE754E4A0
:102D80000E941903DC01CB018C879D87AE87BF872A
:102D90006C857D858E859F8520E030E04AEF54E488
:102DA0000E941F02DC01CB0188879987AA87BB8715
:102DB000688579858A859B8520E030E040E85FE37F
:102DC0000E94250488232CF481E090E09F838E8369
:102DD0003FC0688579858A859B8520E03FEF4FE776
:102DE00057E40E94C50318164CF56C857D858E85C9
:102DF0009F8520E030E040E251E40E941F02DC01A8
:102E0000CB01BC01CD010E944900DC01CB019F83B5
:102E10008E830FC088EC90E09D838C838C819D8194
:102E20000197F1F79D838C838E819F8101979F830A
:102E30008E838E819F81009769F724C0688579858C
:102E40008A859B850E944900DC01CB019F838E838C
:102E50008E819F819B838A838A819B810197F1F771
:102E60009B838A830FC069897A898B899C890E9498
:102E70004900DC01CB01888B8889898389818A9507
:102E8000F1F78983198E0EC0898D282F30E08A8D45
:102E90009B8DFC01E20FF31F80810E94CA12898D75
:102EA0008F5F898F898D883078F38C8D6D8D4E8DF5
:102EB0000E94E4126E960FB6F894DEBF0FBECDBF2F
:102EC000CF91DF910895DF93CF93CDB7DEB7E4972D
:102ED0000FB6F894DEBF0FBECDBF82E060E041E0E8
:102EE0000E94B50C82E061E041E00E94B50C82E0F6
:102EF00062E041E00E94B50C82E063E041E00E94A4
:102F0000B50C80E060E041E00E94B50C80E061E03B
:102F100041E00E94B50C80E062E041E00E94B50C07
:102F200080E090E0A0EAB1E489AB9AABABABBCAB7C
:102F300069A97AA98BA99CA920E030E04AEF54E462
:102F40000E941F02DC01CB018DA79EA7AFA7B8ABE3
:102F50006DA57EA58FA598A920E030E040E85FE34D
:102F60000E94250488232CF481E090E09CA78BA785
:102F70003FC06DA57EA58FA598A920E03FEF4FE744
:102F800057E40E94C50318164CF569A97AA98BA9C4
:102F90009CA920E030E040E251E40E941F02DC01E5
:102FA000CB01BC01CD010E944900DC01CB019CA7F3
:102FB0008BA70FC088EC90E09AA789A789A59AA54E
:102FC0000197F1F79AA789A78BA59CA501979CA7C4
:102FD0008BA78BA59CA5009769F714C06DA57EA54E
:102FE0008FA598A90E944900DC01CB019CA78BA763
:102FF0008BA59CA598A78FA38FA198A50197F1F702
:1030000098A78FA388E30E94561980E090E0A0EA79
:10301000B0E48BA39CA3ADA3BEA36BA17CA18DA1A7
:103020009EA120E030E04AEF54E40E941F02DC0140
:10303000CB018F8F98A3A9A3BAA36F8D78A189A183
:103040009AA120E030E040E85FE30E942504882355
:103050002CF481E090E09E8F8D8F3FC06F8D78A122
:1030600089A19AA120E03FEF4FE757E40E94C503F2
:1030700018164CF56BA17CA18DA19EA120E030E03B
:1030800040E251E40E941F02DC01CB01BC01CD01F2
:103090000E944900DC01CB019E8F8D8F0FC088EC10
:1030A00090E09C8F8B8F8B8D9C8D0197F1F79C8F7F
:1030B0008B8F8D8D9E8D01979E8F8D8F8D8D9E8D8B
:1030C000009769F714C06F8D78A189A19AA10E9419
:1030D0004900DC01CB019E8F8D8F8D8D9E8D9A8F47
:1030E000898F898D9A8D0197F1F79A8F898F88E35F
:1030F0000E94561980E090E0A6E1B3E48D8B9E8B90
:10310000AF8BB88F6D897E898F89988D2BEA3AEACB
:103110004AE250E40E941F02DC01CB01898B9A8BAA
:10312000AB8BBC8B69897A898B899C8920E030E0E4
:1031300040E85FE30E94250488231CF481E0888B2B
:1031400091C069897A898B899C8920E030E04FE7BA
:1031500053E40E94C50318160CF07BC06D897E896C
:103160008F89988D20E030E04AE754E40E941903EB
:10317000DC01CB018C879D87AE87BF876C857D8501
:103180008E859F8520E030E04AEF54E40E941F02C4
:10319000DC01CB0188879987AA87BB8768857985F9
:1031A0008A859B8520E030E040E85FE30E942504AB
:1031B00088232CF481E090E09F838E833FC0688554
:1031C00079858A859B8520E03FEF4FE757E40E9491
:1031D000C50318164CF56C857D858E859F8520E08E
:1031E00030E040E251E40E941F02DC01CB01BC014F
:1031F000CD010E944900DC01CB019F838E830FC06B
:1032000088EC90E09D838C838C819D810197F1F700
:103210009D838C838E819F8101979F838E838E8176
:103220009F81009769F724C0688579858A859B8589
:103230000E944900DC01CB019F838E838E819F8198
:103240009B838A838A819B810197F1F79B838A8381
:103250000FC069897A898B899C890E944900DC01A9
:10326000CB01888B8889898389818A95F1F7898345
:1032700088E30E94561981E00E94561982E00E945C
:10328000561986E00E9456198CE00E94561988E271
:103290000E94561980E80E945619E4960FB6F894D9
:1032A000DEBF0FBECDBFCF91DF910895DF93CF93E7
:1032B0000F92CDB7DEB7898380E060E040E00E94E6
:1032C000B50D80E061E040E00E94B50D89818295F6
:1032D0008F700E94421B0E94721B89810E94421BB8
:1032E0000E94721B0F90CF91DF910895DF93CF93CF
:1032F0000F92CDB7DEB7898380E060E041E00E94A5
:10330000B50D80E061E040E00E94B50D89818295B5
:103310008F700E94421B0E94721B89810E94421B77
:103320000E94721B0F90CF91DF910895DF93CF938E
:1033300000D00F92CDB7DEB789836A834B838A8131
:103340006B810E94461C89810E9476190F900F9014
:103350000F90CF91DF910895DF93CF9300D00F921C
:10336000CDB7DEB79B838A8319820EC08981282F4F
:1033700030E08A819B81FC01E20FF31F80810E9473
:10338000761989818F5F89838981282F30E08A812E
:103390009B81FC01E20FF31F8081882339F70F9096
:1033A0000F900F90CF91DF910895DF93CF9300D0CE
:1033B00000D00F92CDB7DEB79B838A836C834D8399
:1033C0008C816D810E94461C19820EC08981282F34
:1033D00030E08A819B81FC01E20FF31F80810E9413
:1033E000761989818F5F89838981282F30E08A81CE
:1033F0009B81FC01E20FF31F8081882339F70F9036
:103400000F900F900F900F90CF91DF910895DF9361
:10341000CF93CDB7DEB72F970FB6F894DEBF0FBEB0
:10342000CDBF9D878C876E874F878BE0FE013196DD
:10343000DF01982F1D929A95E9F700D000D000D0B7
:10344000EDB7FEB73196CE0101969183808380E679
:1034500090E0938382838C859D85958384830E94ED
:10346000C022ADB7BEB716960FB6F894BEBF0FBE5A
:10347000ADBFCE0101966E854F850E94D5192F965E
:103480000FB6F894DEBF0FBECDBFCF91DF91089588
:10349000DF93CF93CDB7DEB76E970FB6F894DEBF4C
:1034A0000FBECDBF9B8F8A8F6C8F4D8F2E8F8C8DD3
:1034B000882F90E00896880F991F880F991F880F12
:1034C000991F0E94561980E090E0A8E4B2E48D8B29
:1034D0009E8BAF8BB88F6D897E898F89988D2BEAF3
:1034E0003AEA4AE250E40E941F02DC01CB01898BD8
:1034F0009A8BAB8BBC8B69897A898B899C8920E0FC
:1035000030E040E85FE30E94250488231CF481E05A
:10351000888B91C069897A898B899C8920E030E009
:103520004FE753E40E94C50318160CF07BC06D8969
:103530007E898F89988D20E030E04AE754E40E942C
:103540001903DC01CB018C879D87AE87BF876C8513
:103550007D858E859F8520E030E04AEF54E40E940F
:103560001F02DC01CB0188879987AA87BB87688502
:1035700079858A859B8520E030E040E85FE30E9402
:10358000250488232CF481E090E09F838E833FC044
:10359000688579858A859B8520E03FEF4FE757E472
:1035A0000E94C50318164CF56C857D858E859F8518
:1035B00020E030E040E251E40E941F02DC01CB0138
:1035C000BC01CD010E944900DC01CB019F838E83A9
:1035D0000FC088EC90E09D838C838C819D81019746
:1035E000F1F79D838C838E819F8101979F838E83CA
:1035F0008E819F81009769F724C0688579858A85C7
:103600009B850E944900DC01CB019F838E838E81C4
:103610009F819B838A838A819B810197F1F79B839A
:103620008A830FC069897A898B899C890E944900A5
:10363000DC01CB01888B8889898389818A95F1F7A0
:103640008983198E0EC0898D282F30E08A8D9B8D3D
:10365000FC01E20FF31F80810E947619898D8F5F34
:10366000898F898D883078F38C8D6D8D4E8D0E9479
:1036700096196E960FB6F894DEBF0FBECDBFCF91F0
:10368000DF910895DF93CF930F92CDB7DEB7898393
:103690008981982F917082E060E0492F0E94B50DDA
:1036A00089818695982F917082E061E0492F0E9470
:1036B000B50D898186958695982F917082E062E09C
:1036C000492F0E94B50D8981869586958695982FFC
:1036D000917082E063E0492F0E94B50D0F90CF9169
:1036E000DF910895DF93CF93CDB7DEB72E970FB656
:1036F000F894DEBF0FBECDBF80E062E041E00E94E3
:10370000B50D80E090E0A0E8BFE38B879C87AD8794
:10371000BE876B857C858D859E8520E030E04AEFF5
:1037200054E40E941F02DC01CB018F839887A98794
:10373000BA876F81788589859A8520E030E040E8F6
:103740005FE30E94250488232CF481E090E09E83AF
:103750008D833FC06F81788589859A8520E03FEF12
:103760004FE757E40E94C50318164CF56B857C851E
:103770008D859E8520E030E040E251E40E941F02EA
:10378000DC01CB01BC01CD010E944900DC01CB0171
:103790009E838D830FC088EC90E09C838B838B810C
:1037A0009C810197F1F79C838B838D819E8101978A
:1037B0009E838D838D819E81009769F714C06F81F0
:1037C000788589859A850E944900DC01CB019E831A
:1037D0008D838D819E819A83898389819A810197C6
:1037E000F1F79A83898380E062E040E00E94B50DA2
:1037F0002E960FB6F894DEBF0FBECDBFCF91DF91EE
:103800000895DF93CF9300D000D0CDB7DEB7898382
:103810006A838A8181508A838981282F30E03C83A2
:103820002B838B819C8182309105D9F02B813C8147
:103830002330310534F48B819C818130910561F016
:103840001EC02B813C812330310581F08B819C810E
:103850008430910581F013C08A8180580E94B01293
:103860000EC08A8180540E94B01209C08A818C5691
:103870000E94B01204C08A818C520E94B0120F9034
:103880000F900F900F90CF91DF910895DF93CF931A
:1038900000D000D0CDB7DEB789836A838A8181509A
:1038A0008A838981282F30E03C832B838B819C8104
:1038B0008130910531F02B813C812230310531F08E
:1038C00009C08A8180580E94561904C08A81805498
:1038D0000E9456190F900F900F900F90CF91DF918B
:1038E0000895DF93CF93CDB7DEB780E06FE00E94FD
:1038F000AC0F80E06FEF0E94ED0FCF91DF91089544
:10390000DF93CF93CDB7DEB763970FB6F894DEBFE2
:103910000FBECDBF1B8A1A8A198A188A8FEF8F872C
:103920001B8ADBC08B89882F90E0FC01E055FF4F9C
:10393000908180E0692F40E00E94B50D1A8AA4C0F2
:103940008A89882F90E0FC01EC54FF4F908180E041
:10395000692F0E94B50E898B8989882309F091C04F
:1039600080E090E0A0EAB1E48B879C87AD87BE87BA
:103970006B857C858D859E8520E030E04AEF54E4A0
:103980000E941F02DC01CB018F839887A987BA8729
:103990006F81788589859A8520E030E040E85FE393
:1039A0000E94250488232CF481E090E09E838D837F
:1039B0003FC06F81788589859A8520E03FEF4FE78A
:1039C00057E40E94C50318164CF56B857C858D85E0
:1039D0009E8520E030E040E251E40E941F02DC01BD
:1039E000CB01BC01CD010E944900DC01CB019E83CB
:1039F0008D830FC088EC90E09C838B838B819C81AE
:103A00000197F1F79C838B838D819E8101979E8323
:103A10008D838D819E81009769F714C06F817885B1
:103A200089859A850E944900DC01CB019E838D83A4
:103A30008D819E819A83898389819A810197F1F78B
:103A40009A8389838A89882F90E0FC01EC54FF4F88
:103A5000908180E0692F0E94B50E898B0CC08A8905
:103A6000882F90E0FC01EC54FF4F908180E0692F9B
:103A70000E94B50E898B8989882389F381E0888B20
:103A800007C08A898F5F8A8B8A89833008F458CF70
:103A90008B89882F90E0FC01E055FF4F908180E0FA
:103AA000692F41E00E94B50D8889813099F48B8996
:103AB000282F30E08A89482F50E0C901880F991FCC
:103AC000820F931F840F951FFC01EC55FF4F8081DF
:103AD0008F8707C08B898F5F8B8B8B89843008F42D
:103AE00021CF8F8563960FB6F894DEBF0FBECDBF92
:103AF000CF91DF910895DF93CF93CDB7DEB7619774
:103B00000FB6F894DEBF0FBECDBF8F87798B688B61
:103B10000E94DF0B88899989892F992780650E94E7
:103B20000E0C88890E94600C8F850E94600C0E9498
:103B3000F90B80E090E0A0E2B1E48B879C87AD8731
:103B4000BE876B857C858D859E8520E030E04AEFC1
:103B500054E40E941F02DC01CB018F839887A98760
:103B6000BA876F81788589859A8520E030E040E8C2
:103B70005FE30E94250488232CF481E090E09E837B
:103B80008D833FC06F81788589859A8520E03FEFDE
:103B90004FE757E40E94C50318164CF56B857C85EA
:103BA0008D859E8520E030E040E251E40E941F02B6
:103BB000DC01CB01BC01CD010E944900DC01CB013D
:103BC0009E838D830FC088EC90E09C838B838B81D8
:103BD0009C810197F1F79C838B838D819E81019756
:103BE0009E838D838D819E81009769F714C06F81BC
:103BF000788589859A850E944900DC01CB019E83E6
:103C00008D838D819E819A83898389819A81019791
:103C1000F1F79A83898361960FB6F894DEBF0FBEE1
:103C2000CDBFCF91DF910895DF93CF9300D00F9256
:103C3000CDB7DEB79B838A8319820E94DF0B8A810E
:103C40009B81892F992780650E940E0C8A810E9492
:103C5000600C0E94DF0B8A819B81892F99278065E8
:103C60000E94370C0E947A0C89830E94F90B89818B
:103C70000F900F900F90CF91DF910895DF93CF9326
:103C8000CDB7DEB783E064E041E00E94B50C83E08D
:103C900067E041E00E94B50C83E064E040E00E94F0
:103CA000B50D83E067E040E00E94B50DCF91DF9154
:103CB0000895DF93CF93CDB7DEB783E064E041E0B2
:103CC0000E94B50D83E067E040E00E94B50DCF9102
:103CD000DF910895DF93CF93CDB7DEB783E064E043
:103CE00040E00E94B50D83E067E041E00E94B50D21
:103CF000CF91DF910895DF93CF93CDB7DEB783E007
:103D000064E040E00E94B50D83E067E040E00E947F
:103D1000B50DCF91DF910895DF93CF93CDB7DEB787
:103D2000EE970FB6F894DEBF0FBECDBF0E945309C9
:103D30000E943E1E0E941C1180E062E040E020E0F4
:103D40000E944F0678940E94FA1283E062E041E0FC
:103D50000E94B50C83E063E041E00E94B50C80E076
:103D600063E041E00E94B50C80E064E041E00E9425
:103D7000B50C80E065E041E00E94B50C80E066E0B3
:103D800041E00E94B50C81E060E041E00E94B50C8A
:103D900081E061E041E00E94B50C81E062E041E039
:103DA0000E94B50C81E063E041E00E94B50C83E025
:103DB00063E041E00E94B50D80E066E041E00E94D2
:103DC000B50D8FEF0E9497098093CD008091CD00B3
:103DD000282F30E03EAF2DAF8DAD9EAD84339105E1
:103DE00009F47DC12DAD3EAD2533310534F48DADE3
:103DF0009EAD83339105E9F05CC22DAD3EAD253318
:103E0000310509F41CC28DAD9EAD8134910509F0D8
:103E100050C280E065E040E00E94B50D80E063E0C4
:103E200040E00E94B50D80E066E041E00E94B50DE3
:103E300040C28FEF0E9497098093CF008091CF00FE
:103E4000282F30E03CAF2BAF8BAD9CAD813391057B
:103E500031F02BAD3CAD2233310519F12AC28FEF81
:103E60000E9497098093CE008091CE00282F30E0E9
:103E70003AAF29AF89AD9AAD8133910531F029ADC3
:103E80003AAD2233310539F014C280E064E041E0FC
:103E90000E94B50D0EC280E064E040E00E94B50DC6
:103EA00008C28FEF0E9497098093CE008091CE00C8
:103EB000282F30E038AF2FAB8FA998AD8133910513
:103EC00039F02FA938AD2233310509F485C0F1C18D
:103ED00081E08093D00083E062E041E00E94B50D74
:103EE00083E063E040E00E94B50D0E94591E80E02F
:103EF00090E0AAE7B4E48FA398A7A9A7BAA76FA1F7
:103F000078A589A59AA520E030E04AEF54E40E9404
:103F10001F02DC01CB018BA39CA3ADA3BEA36BA1AD
:103F20007CA18DA19EA120E030E040E85FE30E94EB
:103F3000250488232CF481E090E09AA389A33FC054
:103F40006BA17CA18DA19EA120E03FEF4FE757E43C
:103F50000E94C50318164CF56FA178A589A59AA5EE
:103F600020E030E040E251E40E941F02DC01CB017E
:103F7000BC01CD010E944900DC01CB019AA389A3B9
:103F80000FC088EC90E098A38F8F8F8D98A1019738
:103F9000F1F798A38F8F89A19AA101979AA389A37A
:103FA00089A19AA1009769F714C06BA17CA18DA18A
:103FB0009EA10E944900DC01CB019AA389A389A19B
:103FC0009AA19E8F8D8F8D8D9E8D0197F1F79E8F7B
:103FD0008D8F0E947B1E6DC11092D0000E946A1EC0
:103FE00080E090E0AAE7B4E4898F9A8FAB8FBC8F12
:103FF000698D7A8D8B8D9C8D20E030E04AEF54E402
:104000000E941F02DC01CB018D8B9E8BAF8BB88F82
:104010006D897E898F89988D20E030E040E85FE3EC
:104020000E94250488232CF481E090E09C8B8B8BEC
:104030003FC06D897E898F89988D20E03FEF4FE7E3
:1040400057E40E94C50318164CF5698D7A8D8B8D47
:104050009C8D20E030E040E251E40E941F02DC0130
:10406000CB01BC01CD010E944900DC01CB019C8B3E
:104070008B8B0FC088EC90E09A8B898B89899A8909
:104080000197F1F79A8B898B8B899C8901979C8B7F
:104090008B8B8B899C89009769F714C06D897E8909
:1040A0008F89988D0E944900DC01CB019C8B8B8B02
:1040B0008B899C89988B8F878F8598890197F1F7D9
:1040C000988B8F870E947B1E83E062E040E00E9415
:1040D000B50D83E063E041E00E94B50DEAC08FEFCB
:1040E0000E9497098093CF008091CF00282F30E065
:1040F0003EAB2DAB8DA99EA982339105D1F12DA99F
:104100003EA92333310534F48DA99EA9813391054D
:1041100071F0CFC02DA93EA92333310509F44BC05E
:104120008DA99EA98433910509F467C0C2C08FEFA1
:104130000E9497098093CE008091CE00282F30E016
:104140003CAB2BAB8BA99CA98133910531F02BA9FA
:104150003CA92233310539F0ACC081E060E041E098
:104160000E94B50DA6C081E060E040E00E94B50D60
:10417000A0C08FEF0E9497098093CE008091CE005F
:10418000282F30E03AAB29AB89A99AA98133910550
:1041900031F029A93AA92233310539F08AC081E0EA
:1041A00061E041E00E94B50D84C081E061E040E043
:1041B0000E94B50D7EC08FEF0E9497098093CE00BC
:1041C0008091CE00282F30E038AB2FA78FA598A97B
:1041D0008133910531F02FA538A92233310539F00B
:1041E00068C081E062E041E00E94B50D62C081E0FC
:1041F00062E040E00E94B50D5CC08FEF0E9497091D
:104200008093CE008091CE00282F30E03EA72DA7CE
:104210008DA59EA58133910531F02DA53EA52233B4
:10422000310539F046C081E063E041E00E94B50D00
:1042300040C081E063E040E00E94B50D3AC08FEFDE
:104240000E9497098093CF008091CF00282F30E003
:104250003CA72BA78BA59CA58233910531F02BA5FC
:104260003CA52333310589F024C080E065E041E0BE
:104270000E94B50D80E063E041E00E94B50D80E052
:1042800066E040E00E94B50D14C08FEF0E949709D0
:104290008093CE0080E065E040E00E94B50D80E0B4
:1042A00063E040E00E94B50D80E066E041E00E94DE
:1042B000B50D8091D000813009F083CD88E00E9457
:1042C00036119093D3008093D20083E690E061E0B2
:1042D00041E00E94F6158091D2009091D30061E0F8
:1042E0004CE00E9428168091D2009091D300853135
:1042F000910588F08091D100813019F081E00E9411
:10430000B0128FE690E062E041E00E94F61581E095
:104310008093D10056CD8091D2009091D300853109
:10432000910508F0A4C08091D2009091D300803113
:10433000910508F49CC08091D100823019F081E091
:104340000E94B0128DE790E061E047E00E94F61510
:104350001092D0000E946A1E80E090E0AAE7B4E4C8
:104360008B879C87AD87BE876B857C858D859E8579
:1043700020E030E04AEF54E40E941F02DC01CB0150
:104380008F839887A987BA876F81788589859A8571
:1043900020E030E040E85FE30E94250488232CF40D
:1043A00081E090E09E838D833FC06F817885898511
:1043B0009A8520E03FEF4FE757E40E94C5031816A7
:1043C0004CF56B857C858D859E8520E030E040E254
:1043D00051E40E941F02DC01CB01BC01CD010E940F
:1043E0004900DC01CB019E838D830FC088EC90E0F7
:1043F0009C838B838B819C810197F1F79C838B83BA
:104400008D819E8101979E838D838D819E810097F2
:1044100069F714C06F81788589859A850E94490063
:10442000DC01CB019E838D838D819E819A8389835C
:1044300089819A810197F1F79A8389830E947B1E73
:1044400081E00E94B01282E890E061E041E00E94C9
:10445000F61583E062E040E00E94B50D83E063E082
:1044600041E00E94B50D82E08093D100AACC8091FA
:10447000D100833019F081E00E94B0128FE890E003
:1044800062E041E00E94F61583E08093D10099CC70
:10449000629FD001739FF001829FE00DF11D649F28
:1044A000E00DF11D929FF00D839FF00D749FF00DB4
:1044B000659FF00D9927729FB00DE11DF91F639F55
:1044C000B00DE11DF91FBD01CF0111240895A1E236
:1044D0001A2EAA1BBB1BFD010DC0AA1FBB1FEE1F7E
:1044E000FF1FA217B307E407F50720F0A21BB30BC9
:1044F000E40BF50B661F771F881F991F1A9469F745
:1045000060957095809590959B01AC01BD01CF01A0
:1045100008952F923F924F925F926F927F928F9267
:104520009F92AF92BF92CF92DF92EF92FF920F9342
:104530001F93CF93DF93CDB7DEB7CA1BDB0B0FB64C
:10454000F894DEBF0FBECDBF09942A883988488809
:104550005F846E847D848C849B84AA84B984C8849F
:10456000DF80EE80FD800C811B81AA81B981CE0F96
:10457000D11D0FB6F894DEBF0FBECDBFED0108957B
:10458000AEE0B0E0E6ECF2E20C9497220D891E89D1
:1045900086E08C831A8309838FEF9FE79E838D8348
:1045A0009E01275E3F4FCE0101966F89788DA9014C
:1045B0000E94E4222F813885020F131FF801108218
:1045C0002E96E4E00C94B322ABE0B0E0EAEEF2E227
:1045D0000C9489223C012B015A01FC01178216829E
:1045E000838181FD03C06FEF7FEFC6C19AE0892E02
:1045F0001E010894211C311CF3012381F20123FDCB
:10460000859123FF81912F01882309F4B2C185325E
:1046100039F423FD859123FF81912F01853229F4FF
:1046200090E0B3010E94D724E7CF982FFF24EE2417
:104630009924FFE1FF15D0F09B3269F09C3228F4F9
:10464000903259F0933291F40EC09D3249F090337C
:1046500069F441E024C052E0F52A84E0F82A28C039
:1046600098E0F92A25C0E0E1FE2A22C0F7FC29C023
:10467000892F80538A3070F4F6FE05C0989C902CE8
:104680001124980E15C0E89CE02C1124E80EF0E2ED
:10469000FF2A0EC09E3229F4F6FC6BC140E4F42AD6
:1046A00007C09C3619F450E8F52A02C0983649F440
:1046B000F20123FD959123FF91912F01992309F098
:1046C000B8CF892F8554833018F08052833038F466
:1046D00044E050E0A40EB51E5FE359830FC093364B
:1046E00031F0933779F0933509F056C020C0F501C9
:1046F0008081898342E050E0A40EB51E610101E093
:1047000010E012C0F501C080D180F6FC03C06FEF4D
:104710007FEF02C0692D70E042E050E0A40EB51EAC
:10472000C6010E94CC248C015FE7F52214C0F5017C
:10473000C080D180F6FC03C06FEF7FEF02C0692D0F
:1047400070E042E050E0A40EB51EC6010E94C124F4
:104750008C0150E8F52AF3FE07C01AC080E290E011
:10476000B3010E94D724EA948E2D90E00817190710
:10477000A8F30EC0F601F7FC8591F7FE81916F0159
:1047800090E0B3010E94D724E110EA940150104058
:104790000115110579F7EAC0943611F0993669F5DB
:1047A000F7FE08C0F501208131814281538184E008
:1047B00090E00AC0F501808191819C01442737FD7A
:1047C0004095542F82E090E0A80EB91E9FE6F92292
:1047D00057FF09C050954095309521953F4F4F4F59
:1047E0005F4FE0E8FE2ACA01B901A1012AE030E0EA
:1047F0000E940325D82ED21840C0953729F41F2DCA
:104800001F7E2AE030E01DC01F2D197F9F3661F00A
:10481000903720F4983509F0ACC00FC0903739F0CC
:10482000983709F0A6C004C028E030E00AC0106143
:1048300014FD146020E130E004C014FD166020E196
:1048400032E017FF08C0F501608171818281938198
:1048500044E050E008C0F50180819181BC0180E016
:1048600090E042E050E0A40EB51EA1010E94032595
:10487000D82ED2188FE7F82EF122F6FE0BC05EEF8D
:10488000F522D91438F4F4FE07C0F2FC05C08FEE0F
:10489000F82202C01D2D01C0192DF4FE0DC0FE012D
:1048A000ED0DF11D8081803319F499EEF92208C0D5
:1048B0001F5FF2FE05C003C08F2D867809F01F5FD1
:1048C0000F2DF3FC14C0F0FE0FC01E1510F09D2C30
:1048D0000BC09D2C9E0C911A1E2D06C080E290E00C
:1048E000B3010E94D7241F5F1E15C0F304C01E151C
:1048F00010F4E11A01C0EE2404FF0FC080E390E041
:10490000B3010E94D72402FF1DC001FD03C088E748
:1049100090E00EC088E590E00BC0802F867891F083
:1049200001FF02C08BE201C080E2F7FC8DE290E063
:10493000B3010E94D72406C080E390E0B3010E9437
:10494000D7249A94D914C0F3DA94F101ED0DF11D36
:10495000808190E0B3010E94D724DD20A9F706C032
:1049600080E290E0B3010E94D724EA94EE20C1F7E0
:1049700043CEF30166817781CB012B96E2E10C9463
:10498000A522FC010590615070400110D8F7809578
:1049900090958E0F9F1F0895FC016150704001900B
:1049A0000110D8F7809590958E0F9F1F08950F9353
:1049B0001F93CF93DF938C01EB018B8181FF1BC091
:1049C00082FF0DC02E813F818C819D812817390780
:1049D00064F4E881F9810193F983E88306C0E885EE
:1049E000F985802F0995892B31F48E819F8101965D
:1049F0009F838E8302C00FEF1FEFC801DF91CF911D
:104A00001F910F910895FA01AA27283051F1203102
:104A100081F1E8946F936E7F6E5F7F4F8F4F9F4F52
:104A2000AF4FB1E03ED0B4E03CD0670F781F891F94
:104A30009A1FA11D680F791F8A1F911DA11D6A0F62
:104A4000711D811D911DA11D20D009F468943F9115
:104A50002AE0269F11243019305D3193DEF6CF0114
:104A60000895462F4770405D4193B3E00FD0C9F7DA
:104A7000F6CF462F4F70405D4A3318F0495D31FD47
:104A80004052419302D0A9F7EACFB4E0A69597959A
:104A9000879577956795BA95C9F700976105710570
:104AA00008959B01AC010A2E0694579547953795BA
:104AB0002795BA95C9F7620F731F841F951FA01D14
:064AC0000895F894FFCFF9
:104AC60025690044697374616E6365203D20004D5D
:104AD6006F7665204261636B776172640053746F11
:104AE60070005061726B696E6720446F6E65004D91
:104AF6006F766520466F7277617264000000000071
:104B06000000000031323334353637383963303DF2
:084B1600000102030405060082
:00000001FF
